{
  "contractName": "Cert",
  "abi": [
    {
      "constant": false,
      "inputs": [
        {
          "name": "name",
          "type": "string"
        },
        {
          "name": "data",
          "type": "string"
        }
      ],
      "name": "addAttribute",
      "outputs": [],
      "payable": false,
      "stateMutability": "nonpayable",
      "type": "function"
    },
    {
      "constant": false,
      "inputs": [
        {
          "name": "target",
          "type": "address"
        },
        {
          "name": "id",
          "type": "uint256"
        }
      ],
      "name": "Sign",
      "outputs": [],
      "payable": true,
      "stateMutability": "payable",
      "type": "function"
    },
    {
      "constant": true,
      "inputs": [
        {
          "name": "target",
          "type": "address"
        },
        {
          "name": "ID",
          "type": "uint256"
        }
      ],
      "name": "getAttribute",
      "outputs": [
        {
          "name": "",
          "type": "string"
        },
        {
          "name": "",
          "type": "string"
        },
        {
          "name": "",
          "type": "uint256"
        },
        {
          "name": "",
          "type": "uint256"
        }
      ],
      "payable": false,
      "stateMutability": "view",
      "type": "function"
    },
    {
      "constant": false,
      "inputs": [
        {
          "name": "target",
          "type": "address"
        },
        {
          "name": "ID",
          "type": "uint256"
        }
      ],
      "name": "revokeSignature",
      "outputs": [],
      "payable": true,
      "stateMutability": "payable",
      "type": "function"
    },
    {
      "constant": false,
      "inputs": [
        {
          "name": "ID",
          "type": "uint256"
        },
        {
          "name": "data",
          "type": "string"
        }
      ],
      "name": "updateAttribute",
      "outputs": [],
      "payable": true,
      "stateMutability": "payable",
      "type": "function"
    },
    {
      "constant": true,
      "inputs": [],
      "name": "show",
      "outputs": [
        {
          "name": "",
          "type": "address"
        }
      ],
      "payable": false,
      "stateMutability": "view",
      "type": "function"
    },
    {
      "constant": true,
      "inputs": [
        {
          "name": "ID",
          "type": "uint256"
        }
      ],
      "name": "need",
      "outputs": [
        {
          "name": "",
          "type": "uint256"
        }
      ],
      "payable": false,
      "stateMutability": "view",
      "type": "function"
    },
    {
      "constant": true,
      "inputs": [
        {
          "name": "ID",
          "type": "uint256"
        }
      ],
      "name": "show_after",
      "outputs": [
        {
          "name": "",
          "type": "uint256"
        },
        {
          "name": "",
          "type": "uint256"
        },
        {
          "name": "",
          "type": "uint256"
        }
      ],
      "payable": false,
      "stateMutability": "view",
      "type": "function"
    },
    {
      "constant": false,
      "inputs": [
        {
          "name": "ID",
          "type": "uint256"
        }
      ],
      "name": "extendTime",
      "outputs": [],
      "payable": true,
      "stateMutability": "payable",
      "type": "function"
    }
  ],
  "bytecode": "0x608060405234801561001057600080fd5b50613ae1806100206000396000f3fe6080604052600436106100865760003560e01c806398d8b7021161005957806398d8b7021461034c5780639a10b612146103a9578063a27aebbc146103f7578063c2ee419014610425578063cc80f6f31461057357610086565b8063250336571461008b5780632ba56834146100da5780632ff75ca71461023957806338631be5146102fe575b600080fd5b34801561009757600080fd5b506100c4600480360360208110156100ae57600080fd5b81019080803590602001909291905050506105ca565b6040518082815260200191505060405180910390f35b3480156100e657600080fd5b50610237600480360360408110156100fd57600080fd5b810190808035906020019064010000000081111561011a57600080fd5b82018360208201111561012c57600080fd5b8035906020019184600183028401116401000000008311171561014e57600080fd5b91908080601f016020809104026020016040519081016040528093929190818152602001838380828437600081840152601f19601f820116905080830192505050505050509192919290803590602001906401000000008111156101b157600080fd5b8201836020820111156101c357600080fd5b803590602001918460018302840111640100000000831117156101e557600080fd5b91908080601f016020809104026020016040519081016040528093929190818152602001838380828437600081840152601f19601f820116905080830192505050505050509192919290505050610632565b005b6102fc6004803603604081101561024f57600080fd5b81019080803590602001909291908035906020019064010000000081111561027657600080fd5b82018360208201111561028857600080fd5b803590602001918460018302840111640100000000831117156102aa57600080fd5b91908080601f016020809104026020016040519081016040528093929190818152602001838380828437600081840152601f19601f820116905080830192505050505050509192919290505050610919565b005b61034a6004803603604081101561031457600080fd5b81019080803573ffffffffffffffffffffffffffffffffffffffff169060200190929190803590602001909291905050506119a6565b005b34801561035857600080fd5b506103856004803603602081101561036f57600080fd5b8101908080359060200190929190505050612025565b60405180848152602001838152602001828152602001935050505060405180910390f35b6103f5600480360360408110156103bf57600080fd5b81019080803573ffffffffffffffffffffffffffffffffffffffff16906020019092919080359060200190929190505050612154565b005b6104236004803603602081101561040d57600080fd5b8101908080359060200190929190505050612869565b005b34801561043157600080fd5b5061047e6004803603604081101561044857600080fd5b81019080803573ffffffffffffffffffffffffffffffffffffffff16906020019092919080359060200190929190505050613272565b604051808060200180602001858152602001848152602001838103835287818151815260200191508051906020019080838360005b838110156104ce5780820151818401526020810190506104b3565b50505050905090810190601f1680156104fb5780820380516001836020036101000a031916815260200191505b50838103825286818151815260200191508051906020019080838360005b83811015610534578082015181840152602081019050610519565b50505050905090810190601f1680156105615780820380516001836020036101000a031916815260200191505b50965050505050505060405180910390f35b34801561057f57600080fd5b506105886136cb565b604051808273ffffffffffffffffffffffffffffffffffffffff1673ffffffffffffffffffffffffffffffffffffffff16815260200191505060405180910390f35b6000600160003373ffffffffffffffffffffffffffffffffffffffff1673ffffffffffffffffffffffffffffffffffffffff168152602001908152602001600020600101828154811061061957fe5b9060005260206000209060090201600601549050919050565b60001515600160003373ffffffffffffffffffffffffffffffffffffffff1673ffffffffffffffffffffffffffffffffffffffff16815260200190815260200160002060000160009054906101000a900460ff161515141561074f5760003390806001815401808255809150509060018203906000526020600020016000909192909190916101000a81548173ffffffffffffffffffffffffffffffffffffffff021916908373ffffffffffffffffffffffffffffffffffffffff1602179055505060018060003373ffffffffffffffffffffffffffffffffffffffff1673ffffffffffffffffffffffffffffffffffffffff16815260200190815260200160002060000160006101000a81548160ff0219169083151502179055505b610757613752565b600160003373ffffffffffffffffffffffffffffffffffffffff1673ffffffffffffffffffffffffffffffffffffffff1681526020019081526020016000206001018054905081600001818152505082816020018190525081816040018190525062278d00420181608001818152505060008160c0018181525050428160a001818152505060018160e0019015159081151581525050600081610100018181525050600160003373ffffffffffffffffffffffffffffffffffffffff1673ffffffffffffffffffffffffffffffffffffffff168152602001908152602001600020600101819080600181540180825580915050906001820390600052602060002090600902016000909192909190915060008201518160000155602082015181600101908051906020019061088d9291906137a0565b5060408201518160020190805190602001906108aa9291906137a0565b5060608201518160030190805190602001906108c7929190613820565b506080820151816004015560a0820151816005015560c0820151816006015560e08201518160070160006101000a81548160ff0219169083151502179055506101008201518160080155505050505050565b600160003373ffffffffffffffffffffffffffffffffffffffff1673ffffffffffffffffffffffffffffffffffffffff1681526020019081526020016000206001018054905082106109d3576040517f08c379a00000000000000000000000000000000000000000000000000000000081526004018080602001828103825260188152602001807f4e6f20737563682061747472696275746520657869737421000000000000000081525060200191505060405180910390fd5b600160003373ffffffffffffffffffffffffffffffffffffffff1673ffffffffffffffffffffffffffffffffffffffff1681526020019081526020016000206001018281548110610a2057fe5b90600052602060002090600902016004015442118015610a9e57506000600160003373ffffffffffffffffffffffffffffffffffffffff1673ffffffffffffffffffffffffffffffffffffffff1681526020019081526020016000206001018381548110610a8a57fe5b906000526020600020906009020160080154145b15610df6576000600160003373ffffffffffffffffffffffffffffffffffffffff1673ffffffffffffffffffffffffffffffffffffffff1681526020019081526020016000206001018381548110610af257fe5b906000526020600020906009020160070160006101000a81548160ff021916908315150217905550600160003373ffffffffffffffffffffffffffffffffffffffff1673ffffffffffffffffffffffffffffffffffffffff1681526020019081526020016000206001018281548110610b6757fe5b9060005260206000209060090201600801600081548092919060010191905055506000600160003373ffffffffffffffffffffffffffffffffffffffff1673ffffffffffffffffffffffffffffffffffffffff1681526020019081526020016000206001018381548110610bd757fe5b906000526020600020906009020160030180549050905060008090505b81811015610d2b5760008181548110610c0957fe5b9060005260206000200160009054906101000a900473ffffffffffffffffffffffffffffffffffffffff1673ffffffffffffffffffffffffffffffffffffffff166108fc67016345785d8a00009081150290604051600060405180830381858888f19350505050158015610c81573d6000803e3d6000fd5b506000808281548110610c9057fe5b9060005260206000200160009054906101000a900473ffffffffffffffffffffffffffffffffffffffff1690806001815401808255809150509060018203906000526020600020016000909192909190916101000a81548173ffffffffffffffffffffffffffffffffffffffff021916908373ffffffffffffffffffffffffffffffffffffffff160217905550508080600101915050610bf4565b5060008090505b6000805490508282011015610ddd57600082820181548110610d5057fe5b9060005260206000200160009054906101000a900473ffffffffffffffffffffffffffffffffffffffff1660008281548110610d8857fe5b9060005260206000200160006101000a81548173ffffffffffffffffffffffffffffffffffffffff021916908373ffffffffffffffffffffffffffffffffffffffff1602179055508080600101915050610d32565b508060008054905003600081610df391906138aa565b50505b80600160003373ffffffffffffffffffffffffffffffffffffffff1673ffffffffffffffffffffffffffffffffffffffff1681526020019081526020016000206001018381548110610e4457fe5b90600052602060002090600902016002019080519060200190610e689291906138d6565b5060011515600160003373ffffffffffffffffffffffffffffffffffffffff1673ffffffffffffffffffffffffffffffffffffffff1681526020019081526020016000206001018381548110610eba57fe5b906000526020600020906009020160070160009054906101000a900460ff16151514156117915760008090505b600160003373ffffffffffffffffffffffffffffffffffffffff1673ffffffffffffffffffffffffffffffffffffffff1681526020019081526020016000206001018381548110610f3457fe5b90600052602060002090600902016003018054905081101561178f57600160003373ffffffffffffffffffffffffffffffffffffffff1673ffffffffffffffffffffffffffffffffffffffff1681526020019081526020016000206001018381548110610f9d57fe5b90600052602060002090600902016003018181548110610fb957fe5b9060005260206000200160009054906101000a900473ffffffffffffffffffffffffffffffffffffffff1673ffffffffffffffffffffffffffffffffffffffff166108fc67016345785d8a00009081150290604051600060405180830381858888f19350505050158015611031573d6000803e3d6000fd5b5060008090505b60016000600160003373ffffffffffffffffffffffffffffffffffffffff1673ffffffffffffffffffffffffffffffffffffffff168152602001908152602001600020600101868154811061108957fe5b906000526020600020906009020160030184815481106110a557fe5b9060005260206000200160009054906101000a900473ffffffffffffffffffffffffffffffffffffffff1673ffffffffffffffffffffffffffffffffffffffff1673ffffffffffffffffffffffffffffffffffffffff16815260200190815260200160002060020180549050811015611781573373ffffffffffffffffffffffffffffffffffffffff1660016000600160003373ffffffffffffffffffffffffffffffffffffffff1673ffffffffffffffffffffffffffffffffffffffff168152602001908152602001600020600101878154811061118057fe5b9060005260206000209060090201600301858154811061119c57fe5b9060005260206000200160009054906101000a900473ffffffffffffffffffffffffffffffffffffffff1673ffffffffffffffffffffffffffffffffffffffff1673ffffffffffffffffffffffffffffffffffffffff168152602001908152602001600020600201828154811061120f57fe5b906000526020600020906002020160000160009054906101000a900473ffffffffffffffffffffffffffffffffffffffff1673ffffffffffffffffffffffffffffffffffffffff1614801561135457508360016000600160003373ffffffffffffffffffffffffffffffffffffffff1673ffffffffffffffffffffffffffffffffffffffff16815260200190815260200160002060010187815481106112b157fe5b906000526020600020906009020160030185815481106112cd57fe5b9060005260206000200160009054906101000a900473ffffffffffffffffffffffffffffffffffffffff1673ffffffffffffffffffffffffffffffffffffffff1673ffffffffffffffffffffffffffffffffffffffff168152602001908152602001600020600201828154811061134057fe5b906000526020600020906002020160010154145b1561177457600060016000600160003373ffffffffffffffffffffffffffffffffffffffff1673ffffffffffffffffffffffffffffffffffffffff16815260200190815260200160002060010187815481106113ac57fe5b906000526020600020906009020160030185815481106113c857fe5b9060005260206000200160009054906101000a900473ffffffffffffffffffffffffffffffffffffffff1673ffffffffffffffffffffffffffffffffffffffff1673ffffffffffffffffffffffffffffffffffffffff16815260200190815260200160002060020180549050905060016000600160003373ffffffffffffffffffffffffffffffffffffffff1673ffffffffffffffffffffffffffffffffffffffff168152602001908152602001600020600101878154811061148757fe5b906000526020600020906009020160030185815481106114a357fe5b9060005260206000200160009054906101000a900473ffffffffffffffffffffffffffffffffffffffff1673ffffffffffffffffffffffffffffffffffffffff1673ffffffffffffffffffffffffffffffffffffffff168152602001908152602001600020600201600182038154811061151957fe5b906000526020600020906002020160016000600160003373ffffffffffffffffffffffffffffffffffffffff1673ffffffffffffffffffffffffffffffffffffffff168152602001908152602001600020600101888154811061157857fe5b9060005260206000209060090201600301868154811061159457fe5b9060005260206000200160009054906101000a900473ffffffffffffffffffffffffffffffffffffffff1673ffffffffffffffffffffffffffffffffffffffff1673ffffffffffffffffffffffffffffffffffffffff168152602001908152602001600020600201838154811061160757fe5b90600052602060002090600202016000820160009054906101000a900473ffffffffffffffffffffffffffffffffffffffff168160000160006101000a81548173ffffffffffffffffffffffffffffffffffffffff021916908373ffffffffffffffffffffffffffffffffffffffff1602179055506001820154816001015590505060016000600160003373ffffffffffffffffffffffffffffffffffffffff1673ffffffffffffffffffffffffffffffffffffffff16815260200190815260200160002060010187815481106116da57fe5b906000526020600020906009020160030185815481106116f657fe5b9060005260206000200160009054906101000a900473ffffffffffffffffffffffffffffffffffffffff1673ffffffffffffffffffffffffffffffffffffffff1673ffffffffffffffffffffffffffffffffffffffff1681526020019081526020016000206002018054809190600190036117719190613956565b50505b8080600101915050611038565b508080600101915050610ee7565b505b6000600160003373ffffffffffffffffffffffffffffffffffffffff1673ffffffffffffffffffffffffffffffffffffffff16815260200190815260200160002060010183815481106117e057fe5b9060005260206000209060090201600301816117fc91906138aa565b5062278d004201600160003373ffffffffffffffffffffffffffffffffffffffff1673ffffffffffffffffffffffffffffffffffffffff168152602001908152602001600020600101838154811061185057fe5b9060005260206000209060090201600401819055506000600160003373ffffffffffffffffffffffffffffffffffffffff1673ffffffffffffffffffffffffffffffffffffffff16815260200190815260200160002060010183815481106118b457fe5b90600052602060002090600902016006018190555042600160003373ffffffffffffffffffffffffffffffffffffffff1673ffffffffffffffffffffffffffffffffffffffff168152602001908152602001600020600101838154811061191757fe5b90600052602060002090600902016005018190555060018060003373ffffffffffffffffffffffffffffffffffffffff1673ffffffffffffffffffffffffffffffffffffffff168152602001908152602001600020600101838154811061197a57fe5b906000526020600020906009020160070160006101000a81548160ff0219169083151502179055505050565b600160008373ffffffffffffffffffffffffffffffffffffffff1673ffffffffffffffffffffffffffffffffffffffff168152602001908152602001600020600101805490508110611a60576040517f08c379a00000000000000000000000000000000000000000000000000000000081526004018080602001828103825260188152602001807f4e6f20737563682061747472696275746520657869737421000000000000000081525060200191505060405180910390fd5b6000809050600090505b600160003373ffffffffffffffffffffffffffffffffffffffff1673ffffffffffffffffffffffffffffffffffffffff16815260200190815260200160002060020180549050811015611f65578273ffffffffffffffffffffffffffffffffffffffff16600160003373ffffffffffffffffffffffffffffffffffffffff1673ffffffffffffffffffffffffffffffffffffffff1681526020019081526020016000206002018281548110611b1b57fe5b906000526020600020906002020160000160009054906101000a900473ffffffffffffffffffffffffffffffffffffffff1673ffffffffffffffffffffffffffffffffffffffff16148015611bcd575081600160003373ffffffffffffffffffffffffffffffffffffffff1673ffffffffffffffffffffffffffffffffffffffff1681526020019081526020016000206002018281548110611bb957fe5b906000526020600020906002020160010154145b15611f585760011515600160008573ffffffffffffffffffffffffffffffffffffffff1673ffffffffffffffffffffffffffffffffffffffff1681526020019081526020016000206001018381548110611c2357fe5b906000526020600020906009020160070160009054906101000a900460ff1615151415611c9a573373ffffffffffffffffffffffffffffffffffffffff166108fc67016345785d8a00009081150290604051600060405180830381858888f19350505050158015611c98573d6000803e3d6000fd5b505b60008190505b600160003373ffffffffffffffffffffffffffffffffffffffff1673ffffffffffffffffffffffffffffffffffffffff16815260200190815260200160002060020180549050811015611e2757600160003373ffffffffffffffffffffffffffffffffffffffff1673ffffffffffffffffffffffffffffffffffffffff1681526020019081526020016000206002016001820181548110611d3d57fe5b9060005260206000209060020201600160003373ffffffffffffffffffffffffffffffffffffffff1673ffffffffffffffffffffffffffffffffffffffff1681526020019081526020016000206002018281548110611d9857fe5b90600052602060002090600202016000820160009054906101000a900473ffffffffffffffffffffffffffffffffffffffff168160000160006101000a81548173ffffffffffffffffffffffffffffffffffffffff021916908373ffffffffffffffffffffffffffffffffffffffff160217905550600182015481600101559050508080600101915050611ca0565b50600160003373ffffffffffffffffffffffffffffffffffffffff1673ffffffffffffffffffffffffffffffffffffffff16815260200190815260200160002060020160018060003373ffffffffffffffffffffffffffffffffffffffff1673ffffffffffffffffffffffffffffffffffffffff168152602001908152602001600020600201805490500381548110611ebc57fe5b9060005260206000209060020201600080820160006101000a81549073ffffffffffffffffffffffffffffffffffffffff021916905560018201600090555050600160003373ffffffffffffffffffffffffffffffffffffffff1673ffffffffffffffffffffffffffffffffffffffff168152602001908152602001600020600201805480919060019003611f519190613956565b5050612021565b8080600101915050611a6a565b600160003373ffffffffffffffffffffffffffffffffffffffff1673ffffffffffffffffffffffffffffffffffffffff16815260200190815260200160002060020180549050811061201f576040517f08c379a000000000000000000000000000000000000000000000000000000000815260040180806020018281038252601e8152602001807f596f7520646f6e277420686176652073756368207369676e617475726521000081525060200191505060405180910390fd5b505b5050565b6000806000600160003373ffffffffffffffffffffffffffffffffffffffff1673ffffffffffffffffffffffffffffffffffffffff168152602001908152602001600020600101848154811061207757fe5b906000526020600020906009020160060154600160003373ffffffffffffffffffffffffffffffffffffffff1673ffffffffffffffffffffffffffffffffffffffff16815260200190815260200160002060010185815481106120d657fe5b906000526020600020906009020160050154600160003373ffffffffffffffffffffffffffffffffffffffff1673ffffffffffffffffffffffffffffffffffffffff168152602001908152602001600020600101868154811061213557fe5b9060005260206000209060090201600401549250925092509193909250565b3373ffffffffffffffffffffffffffffffffffffffff168273ffffffffffffffffffffffffffffffffffffffff1614156121d9576040517f08c379a0000000000000000000000000000000000000000000000000000000008152600401808060200182810382526022815260200180613a6f6022913960400191505060405180910390fd5b600160008373ffffffffffffffffffffffffffffffffffffffff1673ffffffffffffffffffffffffffffffffffffffff168152602001908152602001600020600101805490508110612293576040517f08c379a00000000000000000000000000000000000000000000000000000000081526004018080602001828103825260188152602001807f4e6f20737563682061747472696275746520657869737421000000000000000081525060200191505060405180910390fd5b67016345785d8a0000341015612311576040517f08c379a000000000000000000000000000000000000000000000000000000000815260040180806020018281038252601a8152602001807f596f75206e65656420746f20706179206d6f7265206d6f6e657900000000000081525060200191505060405180910390fd5b42600160008473ffffffffffffffffffffffffffffffffffffffff1673ffffffffffffffffffffffffffffffffffffffff168152602001908152602001600020600101828154811061235f57fe5b906000526020600020906009020160040154116123e4576040517f08c379a000000000000000000000000000000000000000000000000000000000815260040180806020018281038252601a8152602001807f54686973204174747269627574652069732054696d652055702100000000000081525060200191505060405180910390fd5b60001515600160003373ffffffffffffffffffffffffffffffffffffffff1673ffffffffffffffffffffffffffffffffffffffff16815260200190815260200160002060000160009054906101000a900460ff16151514156125015760003390806001815401808255809150509060018203906000526020600020016000909192909190916101000a81548173ffffffffffffffffffffffffffffffffffffffff021916908373ffffffffffffffffffffffffffffffffffffffff1602179055505060018060003373ffffffffffffffffffffffffffffffffffffffff1673ffffffffffffffffffffffffffffffffffffffff16815260200190815260200160002060000160006101000a81548160ff0219169083151502179055505b60008090505b600160008473ffffffffffffffffffffffffffffffffffffffff1673ffffffffffffffffffffffffffffffffffffffff168152602001908152602001600020600101828154811061255457fe5b906000526020600020906009020160030180549050811015612695573373ffffffffffffffffffffffffffffffffffffffff16600160008573ffffffffffffffffffffffffffffffffffffffff1673ffffffffffffffffffffffffffffffffffffffff16815260200190815260200160002060010183815481106125d457fe5b906000526020600020906009020160030182815481106125f057fe5b9060005260206000200160009054906101000a900473ffffffffffffffffffffffffffffffffffffffff1673ffffffffffffffffffffffffffffffffffffffff161415612688576040517f08c379a0000000000000000000000000000000000000000000000000000000008152600401808060200182810382526025815260200180613a916025913960400191505060405180910390fd5b8080600101915050612507565b50600160008373ffffffffffffffffffffffffffffffffffffffff1673ffffffffffffffffffffffffffffffffffffffff16815260200190815260200160002060010181815481106126e357fe5b90600052602060002090600902016003013390806001815401808255809150509060018203906000526020600020016000909192909190916101000a81548173ffffffffffffffffffffffffffffffffffffffff021916908373ffffffffffffffffffffffffffffffffffffffff16021790555050612760613988565b82816000019073ffffffffffffffffffffffffffffffffffffffff16908173ffffffffffffffffffffffffffffffffffffffff168152505081816020018181525050600160003373ffffffffffffffffffffffffffffffffffffffff1673ffffffffffffffffffffffffffffffffffffffff168152602001908152602001600020600201819080600181540180825580915050906001820390600052602060002090600202016000909192909190915060008201518160000160006101000a81548173ffffffffffffffffffffffffffffffffffffffff021916908373ffffffffffffffffffffffffffffffffffffffff16021790555060208201518160010155505050505050565b600160003373ffffffffffffffffffffffffffffffffffffffff1673ffffffffffffffffffffffffffffffffffffffff168152602001908152602001600020600101805490508110612923576040517f08c379a00000000000000000000000000000000000000000000000000000000081526004018080602001828103825260188152602001807f4e6f20737563682061747472696275746520657869737421000000000000000081525060200191505060405180910390fd5b600160003373ffffffffffffffffffffffffffffffffffffffff1673ffffffffffffffffffffffffffffffffffffffff168152602001908152602001600020600101818154811061297057fe5b906000526020600020906009020160040154421180156129ee57506000600160003373ffffffffffffffffffffffffffffffffffffffff1673ffffffffffffffffffffffffffffffffffffffff16815260200190815260200160002060010182815481106129da57fe5b906000526020600020906009020160080154145b15612d46576000600160003373ffffffffffffffffffffffffffffffffffffffff1673ffffffffffffffffffffffffffffffffffffffff1681526020019081526020016000206001018281548110612a4257fe5b906000526020600020906009020160070160006101000a81548160ff021916908315150217905550600160003373ffffffffffffffffffffffffffffffffffffffff1673ffffffffffffffffffffffffffffffffffffffff1681526020019081526020016000206001018181548110612ab757fe5b9060005260206000209060090201600801600081548092919060010191905055506000600160003373ffffffffffffffffffffffffffffffffffffffff1673ffffffffffffffffffffffffffffffffffffffff1681526020019081526020016000206001018281548110612b2757fe5b906000526020600020906009020160030180549050905060008090505b81811015612c7b5760008181548110612b5957fe5b9060005260206000200160009054906101000a900473ffffffffffffffffffffffffffffffffffffffff1673ffffffffffffffffffffffffffffffffffffffff166108fc67016345785d8a00009081150290604051600060405180830381858888f19350505050158015612bd1573d6000803e3d6000fd5b506000808281548110612be057fe5b9060005260206000200160009054906101000a900473ffffffffffffffffffffffffffffffffffffffff1690806001815401808255809150509060018203906000526020600020016000909192909190916101000a81548173ffffffffffffffffffffffffffffffffffffffff021916908373ffffffffffffffffffffffffffffffffffffffff160217905550508080600101915050612b44565b5060008090505b6000805490508282011015612d2d57600082820181548110612ca057fe5b9060005260206000200160009054906101000a900473ffffffffffffffffffffffffffffffffffffffff1660008281548110612cd857fe5b9060005260206000200160006101000a81548173ffffffffffffffffffffffffffffffffffffffff021916908373ffffffffffffffffffffffffffffffffffffffff1602179055508080600101915050612c82565b508060008054905003600081612d4391906138aa565b50505b600160003373ffffffffffffffffffffffffffffffffffffffff1673ffffffffffffffffffffffffffffffffffffffff1681526020019081526020016000206001018181548110612d9357fe5b906000526020600020906009020160050154421015613083573467016345785d8a0000600160003373ffffffffffffffffffffffffffffffffffffffff1673ffffffffffffffffffffffffffffffffffffffff1681526020019081526020016000206001018381548110612e0357fe5b9060005260206000209060090201600601540210612e89576040517f08c379a00000000000000000000000000000000000000000000000000000000081526004018080602001828103825260188152602001807f596f752073686f756c6420706179206d6f72652066656521000000000000000081525060200191505060405180910390fd5b600160003373ffffffffffffffffffffffffffffffffffffffff1673ffffffffffffffffffffffffffffffffffffffff1681526020019081526020016000206001018181548110612ed657fe5b906000526020600020906009020160060160008154809291906001019190505550600160003373ffffffffffffffffffffffffffffffffffffffff1673ffffffffffffffffffffffffffffffffffffffff1681526020019081526020016000206001018181548110612f4457fe5b906000526020600020906009020160040154600160003373ffffffffffffffffffffffffffffffffffffffff1673ffffffffffffffffffffffffffffffffffffffff1681526020019081526020016000206001018281548110612fa357fe5b90600052602060002090600902016005018190555062278d00600160003373ffffffffffffffffffffffffffffffffffffffff1673ffffffffffffffffffffffffffffffffffffffff168152602001908152602001600020600101828154811061300957fe5b90600052602060002090600902016004015401600160003373ffffffffffffffffffffffffffffffffffffffff1673ffffffffffffffffffffffffffffffffffffffff168152602001908152602001600020600101828154811061306957fe5b90600052602060002090600902016004018190555061326f565b6000600160003373ffffffffffffffffffffffffffffffffffffffff1673ffffffffffffffffffffffffffffffffffffffff16815260200190815260200160002060010182815481106130d257fe5b906000526020600020906009020160060181905550600160003373ffffffffffffffffffffffffffffffffffffffff1673ffffffffffffffffffffffffffffffffffffffff168152602001908152602001600020600101818154811061313457fe5b906000526020600020906009020160040154600160003373ffffffffffffffffffffffffffffffffffffffff1673ffffffffffffffffffffffffffffffffffffffff168152602001908152602001600020600101828154811061319357fe5b90600052602060002090600902016005018190555062278d00600160003373ffffffffffffffffffffffffffffffffffffffff1673ffffffffffffffffffffffffffffffffffffffff16815260200190815260200160002060010182815481106131f957fe5b90600052602060002090600902016004015401600160003373ffffffffffffffffffffffffffffffffffffffff1673ffffffffffffffffffffffffffffffffffffffff168152602001908152602001600020600101828154811061325957fe5b9060005260206000209060090201600401819055505b50565b606080600080600160008773ffffffffffffffffffffffffffffffffffffffff1673ffffffffffffffffffffffffffffffffffffffff168152602001908152602001600020600101805490508510613332576040517f08c379a00000000000000000000000000000000000000000000000000000000081526004018080602001828103825260188152602001807f4e6f20737563682061747472696275746520657869737421000000000000000081525060200191505060405180910390fd5b42600160008873ffffffffffffffffffffffffffffffffffffffff1673ffffffffffffffffffffffffffffffffffffffff168152602001908152602001600020600101868154811061338057fe5b90600052602060002090600902016004015411613405576040517f08c379a000000000000000000000000000000000000000000000000000000000815260040180806020018281038252601a8152602001807f54686973204174747269627574652069732054696d652055702100000000000081525060200191505060405180910390fd5b600160008773ffffffffffffffffffffffffffffffffffffffff1673ffffffffffffffffffffffffffffffffffffffff168152602001908152602001600020600101858154811061345257fe5b9060005260206000209060090201600101600160008873ffffffffffffffffffffffffffffffffffffffff1673ffffffffffffffffffffffffffffffffffffffff16815260200190815260200160002060010186815481106134b057fe5b9060005260206000209060090201600201600160008973ffffffffffffffffffffffffffffffffffffffff1673ffffffffffffffffffffffffffffffffffffffff168152602001908152602001600020600101878154811061350e57fe5b906000526020600020906009020160040154600160008a73ffffffffffffffffffffffffffffffffffffffff1673ffffffffffffffffffffffffffffffffffffffff168152602001908152602001600020600101888154811061356d57fe5b906000526020600020906009020160030180549050838054600181600116156101000203166002900480601f0160208091040260200160405190810160405280929190818152602001828054600181600116156101000203166002900480156136175780601f106135ec57610100808354040283529160200191613617565b820191906000526020600020905b8154815290600101906020018083116135fa57829003601f168201915b50505050509350828054600181600116156101000203166002900480601f0160208091040260200160405190810160405280929190818152602001828054600181600116156101000203166002900480156136b35780601f10613688576101008083540402835291602001916136b3565b820191906000526020600020905b81548152906001019060200180831161369657829003601f168201915b50505050509250935093509350935092959194509250565b6000600160003373ffffffffffffffffffffffffffffffffffffffff1673ffffffffffffffffffffffffffffffffffffffff16815260200190815260200160002060020160008154811061371b57fe5b906000526020600020906002020160000160009054906101000a900473ffffffffffffffffffffffffffffffffffffffff16905090565b60405180610120016040528060008152602001606081526020016060815260200160608152602001600081526020016000815260200160008152602001600015158152602001600081525090565b828054600181600116156101000203166002900490600052602060002090601f016020900481019282601f106137e157805160ff191683800117855561380f565b8280016001018555821561380f579182015b8281111561380e5782518255916020019190600101906137f3565b5b50905061381c91906139b8565b5090565b828054828255906000526020600020908101928215613899579160200282015b828111156138985782518260006101000a81548173ffffffffffffffffffffffffffffffffffffffff021916908373ffffffffffffffffffffffffffffffffffffffff16021790555091602001919060010190613840565b5b5090506138a691906139dd565b5090565b8154818355818111156138d1578183600052602060002091820191016138d091906139b8565b5b505050565b828054600181600116156101000203166002900490600052602060002090601f016020900481019282601f1061391757805160ff1916838001178555613945565b82800160010185558215613945579182015b82811115613944578251825591602001919060010190613929565b5b50905061395291906139b8565b5090565b815481835581811115613983576002028160020283600052602060002091820191016139829190613a20565b5b505050565b6040518060400160405280600073ffffffffffffffffffffffffffffffffffffffff168152602001600081525090565b6139da91905b808211156139d65760008160009055506001016139be565b5090565b90565b613a1d91905b80821115613a1957600081816101000a81549073ffffffffffffffffffffffffffffffffffffffff0219169055506001016139e3565b5090565b90565b613a6b91905b80821115613a6757600080820160006101000a81549073ffffffffffffffffffffffffffffffffffffffff0219169055600182016000905550600201613a26565b5090565b9056fe796f752063616e2774207369676e20796f7572206f776e2061747472696275746521596f75206861766520616c7265616479207369676e20746869732061747472696275746521a165627a7a723058201eb43ac04291f66cf0c715fd200c7b70141ea8cf2aac5185d27938e6b2193b6a0029",
  "source": "pragma solidity >= 0.4.0 < 0.6.0;\r\n\r\ncontract Cert{\r\n    \r\n    struct Attribute{\r\n        uint ID;\r\n        string name;\r\n        string data;\r\n        address payable[] signer;\r\n        uint update_time;\r\n        uint duration_time;\r\n        uint duration_number;\r\n        bool give_back;\r\n        uint paytime;\r\n    }\r\n    struct Signature{\r\n        address target;\r\n        uint ID;\r\n    }\r\n    struct Identity {\r\n        bool exist;\r\n        Attribute[] attrib_list;\r\n        Signature[] sign_list;\r\n    }\r\n    address payable[] exist_list;\r\n    mapping(address=>Identity) identifiers;\r\n    \r\n    function addAttribute(string memory name, string memory data) public{\r\n        if(identifiers[msg.sender].exist == false)\r\n        {\r\n            exist_list.push(msg.sender);\r\n            identifiers[msg.sender].exist = true;\r\n        }\r\n        Attribute memory temp;\r\n        temp.ID = identifiers[msg.sender].attrib_list.length;\r\n        temp.name = name;\r\n        temp.data = data;\r\n        temp.update_time = now+ 1*30 days;\r\n        temp.duration_number = 0;\r\n        temp.duration_time = now;\r\n        temp.give_back = true;\r\n        temp.paytime = 0;\r\n        identifiers[msg.sender].attrib_list.push(temp);\r\n    }\r\n    \r\n    function Sign(address target, uint id) public payable{\r\n        require(target != msg.sender, \"you can't sign your own attribute!\");\r\n        require(id < identifiers[target].attrib_list.length, \"No such attribute exist!\");\r\n        require(msg.value >= 100000000000000000, \"You need to pay more money\");\r\n        require(identifiers[target].attrib_list[id].update_time > now, \"This Attribute is Time Up!\");\r\n\r\n        if(identifiers[msg.sender].exist == false)\r\n        {\r\n            exist_list.push(msg.sender);\r\n            identifiers[msg.sender].exist = true;\r\n        }\r\n        for(uint i=0; i< identifiers[target].attrib_list[id].signer.length; i++)\r\n        {\r\n            require(identifiers[target].attrib_list[id].signer[i]!= msg.sender, \"You have already sign this attribute!\");\r\n        }\r\n        identifiers[target].attrib_list[id].signer.push(msg.sender);\r\n        Signature memory temp;\r\n        temp.target = target;\r\n        temp.ID = id;\r\n        identifiers[msg.sender].sign_list.push(temp);\r\n    }\r\n    function getAttribute(address target, uint ID) public view returns(string memory, string memory, uint, uint){\r\n        require(ID < identifiers[target].attrib_list.length, \"No such attribute exist!\");\r\n        require(identifiers[target].attrib_list[ID].update_time > now, \"This Attribute is Time Up!\");\r\n        return (identifiers[target].attrib_list[ID].name, identifiers[target].attrib_list[ID].data, identifiers[target].attrib_list[ID].update_time, identifiers[target].attrib_list[ID].signer.length);\r\n    }\r\n    \r\n    function revokeSignature(address target, uint ID) public payable{\r\n        require(ID < identifiers[target].attrib_list.length, \"No such attribute exist!\");\r\n        uint i=0;\r\n        for(i=0; i< identifiers[msg.sender].sign_list.length; i++)\r\n        {\r\n            if(identifiers[msg.sender].sign_list[i].target==target && identifiers[msg.sender].sign_list[i].ID==ID)\r\n            {\r\n                if(identifiers[target].attrib_list[ID].give_back == true)\r\n                {\r\n                    msg.sender.transfer(100000000000000000);\r\n                }\r\n                \r\n                for(uint j=i ; j < identifiers[msg.sender].sign_list.length; j++)\r\n                {\r\n                    identifiers[msg.sender].sign_list[j] = identifiers[msg.sender].sign_list[j+1];\r\n                }\r\n                delete identifiers[msg.sender].sign_list[identifiers[msg.sender].sign_list.length-1];\r\n                identifiers[msg.sender].sign_list.length--;\r\n                return;\r\n            }\r\n        }\r\n        require(i < identifiers[msg.sender].sign_list.length, \"You don't have such signature!\");\r\n    }\r\n\r\n    function updateAttribute(uint ID, string memory data)public payable{\r\n        require(ID < identifiers[msg.sender].attrib_list.length, \"No such attribute exist!\");\r\n        if(now > identifiers[msg.sender].attrib_list[ID].update_time && identifiers[msg.sender].attrib_list[ID].paytime == 0)\r\n        {\r\n            identifiers[msg.sender].attrib_list[ID].give_back = false;\r\n            identifiers[msg.sender].attrib_list[ID].paytime++;\r\n            uint temp;\r\n            temp = identifiers[msg.sender].attrib_list[ID].signer.length;\r\n            for(uint k=0; k < temp; k++)\r\n            {\r\n                exist_list[k].transfer(100000000000000000);\r\n                exist_list.push(exist_list[k]);\r\n            }\r\n            \r\n            for(uint k=0; k+temp < exist_list.length; k++)\r\n            {\r\n                exist_list[k] = exist_list[k+temp];\r\n            }\r\n            exist_list.length = exist_list.length - temp;\r\n        }\r\n        identifiers[msg.sender].attrib_list[ID].data = data;\r\n        if(identifiers[msg.sender].attrib_list[ID].give_back == true)\r\n        {\r\n            for(uint i=0; i < identifiers[msg.sender].attrib_list[ID].signer.length; i++)\r\n            {\r\n                identifiers[msg.sender].attrib_list[ID].signer[i].transfer(100000000000000000);\r\n                for(uint j=0; j< identifiers[identifiers[msg.sender].attrib_list[ID].signer[i]].sign_list.length;j++)\r\n                {\r\n                    if(identifiers[identifiers[msg.sender].attrib_list[ID].signer[i]].sign_list[j].target == msg.sender && identifiers[identifiers[msg.sender].attrib_list[ID].signer[i]].sign_list[j].ID==ID)\r\n                    {\r\n                        uint temp = identifiers[identifiers[msg.sender].attrib_list[ID].signer[i]].sign_list.length;\r\n                        identifiers[identifiers[msg.sender].attrib_list[ID].signer[i]].sign_list[j] = identifiers[identifiers[msg.sender].attrib_list[ID].signer[i]].sign_list[temp-1];\r\n                        identifiers[identifiers[msg.sender].attrib_list[ID].signer[i]].sign_list.length--;\r\n                    }\r\n                }\r\n            }\r\n        }\r\n        identifiers[msg.sender].attrib_list[ID].signer.length = 0;\r\n        identifiers[msg.sender].attrib_list[ID].update_time = now+ 30 * 1 days;\r\n        identifiers[msg.sender].attrib_list[ID].duration_number = 0;\r\n        identifiers[msg.sender].attrib_list[ID].duration_time = now;\r\n        identifiers[msg.sender].attrib_list[ID].give_back = true;\r\n    }\r\n    function show() public view returns(address){\r\n        return (identifiers[msg.sender].sign_list[0].target);\r\n    }\r\n    function need(uint ID)public view returns(uint){\r\n        return identifiers[msg.sender].attrib_list[ID].duration_number;\r\n    }\r\n    \r\n    function show_after(uint ID)public view returns(uint, uint, uint){\r\n        return (identifiers[msg.sender].attrib_list[ID].duration_number, identifiers[msg.sender].attrib_list[ID].duration_time, identifiers[msg.sender].attrib_list[ID].update_time);\r\n    }\r\n    \r\n    function extendTime(uint ID)public payable{\r\n        require(ID < identifiers[msg.sender].attrib_list.length, \"No such attribute exist!\");\r\n        if(now > identifiers[msg.sender].attrib_list[ID].update_time && identifiers[msg.sender].attrib_list[ID].paytime == 0)\r\n        {\r\n            identifiers[msg.sender].attrib_list[ID].give_back = false;\r\n            identifiers[msg.sender].attrib_list[ID].paytime++;\r\n            uint temp;\r\n            temp = identifiers[msg.sender].attrib_list[ID].signer.length;\r\n            for(uint k=0; k < temp; k++)\r\n            {\r\n                exist_list[k].transfer(100000000000000000);\r\n                exist_list.push(exist_list[k]);\r\n            }\r\n            \r\n            for(uint k=0; k+temp < exist_list.length; k++)\r\n            {\r\n                exist_list[k] = exist_list[k+temp];\r\n            }\r\n            exist_list.length = exist_list.length - temp;\r\n        }\r\n        if(now < identifiers[msg.sender].attrib_list[ID].duration_time)\r\n        {\r\n            require(identifiers[msg.sender].attrib_list[ID].duration_number * 100000000000000000 < msg.value, \"You should pay more fee!\");\r\n            identifiers[msg.sender].attrib_list[ID].duration_number++;\r\n            identifiers[msg.sender].attrib_list[ID].duration_time = identifiers[msg.sender].attrib_list[ID].update_time;\r\n            identifiers[msg.sender].attrib_list[ID].update_time = identifiers[msg.sender].attrib_list[ID].update_time + 30*1 days;\r\n        }\r\n        else\r\n        {\r\n            identifiers[msg.sender].attrib_list[ID].duration_number = 0;\r\n            identifiers[msg.sender].attrib_list[ID].duration_time = identifiers[msg.sender].attrib_list[ID].update_time;\r\n            identifiers[msg.sender].attrib_list[ID].update_time = identifiers[msg.sender].attrib_list[ID].update_time + 30*1 days;\r\n        }\r\n    }\r\n}",
  "sourcePath": "C:/Users/chris/Desktop/identity_and_certification/contracts/Cert.sol",
  "compiler": {
    "name": "solc",
    "version": "0.5.8+commit.23d335f2.Emscripten.clang"
  },
  "schemaVersion": "3.0.11",
  "updatedAt": "2019-06-30T19:30:21.509Z",
  "devdoc": {
    "methods": {}
  },
  "userdoc": {
    "methods": {}
  }
}