{
  "contractName": "Cert",
  "abi": [
    {
      "constant": false,
      "inputs": [
        {
          "name": "name",
          "type": "string"
        },
        {
          "name": "data",
          "type": "string"
        }
      ],
      "name": "addAttribute",
      "outputs": [],
      "payable": false,
      "stateMutability": "nonpayable",
      "type": "function"
    },
    {
      "constant": false,
      "inputs": [
        {
          "name": "target",
          "type": "address"
        },
        {
          "name": "id",
          "type": "uint256"
        }
      ],
      "name": "Sign",
      "outputs": [],
      "payable": true,
      "stateMutability": "payable",
      "type": "function"
    },
    {
      "constant": true,
      "inputs": [
        {
          "name": "target",
          "type": "address"
        },
        {
          "name": "ID",
          "type": "uint256"
        }
      ],
      "name": "getAttribute",
      "outputs": [
        {
          "name": "",
          "type": "string"
        },
        {
          "name": "",
          "type": "string"
        },
        {
          "name": "",
          "type": "uint256"
        },
        {
          "name": "",
          "type": "uint256"
        }
      ],
      "payable": false,
      "stateMutability": "view",
      "type": "function"
    },
    {
      "constant": false,
      "inputs": [
        {
          "name": "target",
          "type": "address"
        },
        {
          "name": "ID",
          "type": "uint256"
        }
      ],
      "name": "revokeSignature",
      "outputs": [],
      "payable": true,
      "stateMutability": "payable",
      "type": "function"
    },
    {
      "constant": false,
      "inputs": [
        {
          "name": "ID",
          "type": "uint256"
        },
        {
          "name": "data",
          "type": "string"
        }
      ],
      "name": "updateAttribute",
      "outputs": [],
      "payable": true,
      "stateMutability": "payable",
      "type": "function"
    },
    {
      "constant": true,
      "inputs": [],
      "name": "show",
      "outputs": [
        {
          "name": "",
          "type": "address[]"
        }
      ],
      "payable": false,
      "stateMutability": "view",
      "type": "function"
    },
    {
      "constant": false,
      "inputs": [
        {
          "name": "ID",
          "type": "uint256"
        }
      ],
      "name": "extendTime",
      "outputs": [],
      "payable": true,
      "stateMutability": "payable",
      "type": "function"
    }
  ],
  "bytecode": "0x608060405234801561001057600080fd5b506130ab806100206000396000f3fe6080604052600436106100705760003560e01c80639a10b6121161004e5780639a10b612146102e7578063a27aebbc14610335578063c2ee419014610363578063cc80f6f3146104b157610070565b80632ba56834146100755780632ff75ca7146101d457806338631be514610299575b600080fd5b34801561008157600080fd5b506101d26004803603604081101561009857600080fd5b81019080803590602001906401000000008111156100b557600080fd5b8201836020820111156100c757600080fd5b803590602001918460018302840111640100000000831117156100e957600080fd5b91908080601f016020809104026020016040519081016040528093929190818152602001838380828437600081840152601f19601f8201169050808301925050505050505091929192908035906020019064010000000081111561014c57600080fd5b82018360208201111561015e57600080fd5b8035906020019184600183028401116401000000008311171561018057600080fd5b91908080601f016020809104026020016040519081016040528093929190818152602001838380828437600081840152601f19601f82011690508083019250505050505050919291929050505061051d565b005b610297600480360360408110156101ea57600080fd5b81019080803590602001909291908035906020019064010000000081111561021157600080fd5b82018360208201111561022357600080fd5b8035906020019184600183028401116401000000008311171561024557600080fd5b91908080601f016020809104026020016040519081016040528093929190818152602001838380828437600081840152601f19601f820116905080830192505050505050509192919290505050610802565b005b6102e5600480360360408110156102af57600080fd5b81019080803573ffffffffffffffffffffffffffffffffffffffff1690602001909291908035906020019092919050505061113f565b005b610333600480360360408110156102fd57600080fd5b81019080803573ffffffffffffffffffffffffffffffffffffffff169060200190929190803590602001909291905050506117be565b005b6103616004803603602081101561034b57600080fd5b8101908080359060200190929190505050611e4e565b005b34801561036f57600080fd5b506103bc6004803603604081101561038657600080fd5b81019080803573ffffffffffffffffffffffffffffffffffffffff16906020019092919080359060200190929190505050612857565b604051808060200180602001858152602001848152602001838103835287818151815260200191508051906020019080838360005b8381101561040c5780820151818401526020810190506103f1565b50505050905090810190601f1680156104395780820380516001836020036101000a031916815260200191505b50838103825286818151815260200191508051906020019080838360005b83811015610472578082015181840152602081019050610457565b50505050905090810190601f16801561049f5780820380516001836020036101000a031916815260200191505b50965050505050505060405180910390f35b3480156104bd57600080fd5b506104c6612cb0565b6040518080602001828103825283818151815260200191508051906020019060200280838360005b838110156105095780820151818401526020810190506104ee565b505050509050019250505060405180910390f35b60001515600160003373ffffffffffffffffffffffffffffffffffffffff1673ffffffffffffffffffffffffffffffffffffffff16815260200190815260200160002060000160009054906101000a900460ff161515141561063a5760003390806001815401808255809150509060018203906000526020600020016000909192909190916101000a81548173ffffffffffffffffffffffffffffffffffffffff021916908373ffffffffffffffffffffffffffffffffffffffff1602179055505060018060003373ffffffffffffffffffffffffffffffffffffffff1673ffffffffffffffffffffffffffffffffffffffff16815260200190815260200160002060000160006101000a81548160ff0219169083151502179055505b610642612d3e565b600160003373ffffffffffffffffffffffffffffffffffffffff1673ffffffffffffffffffffffffffffffffffffffff168152602001908152602001600020600101805490508160000181815250508281602001819052508181604001819052506001420181608001818152505060008160c0018181525050428160a001818152505060018160e0019015159081151581525050600081610100018181525050600160003373ffffffffffffffffffffffffffffffffffffffff1673ffffffffffffffffffffffffffffffffffffffff1681526020019081526020016000206001018190806001815401808255809150509060018203906000526020600020906009020160009091929091909150600082015181600001556020820151816001019080519060200190610776929190612d8c565b506040820151816002019080519060200190610793929190612d8c565b5060608201518160030190805190602001906107b0929190612e0c565b506080820151816004015560a0820151816005015560c0820151816006015560e08201518160070160006101000a81548160ff0219169083151502179055506101008201518160080155505050505050565b600160003373ffffffffffffffffffffffffffffffffffffffff1673ffffffffffffffffffffffffffffffffffffffff1681526020019081526020016000206001018054905082106108bc576040517f08c379a00000000000000000000000000000000000000000000000000000000081526004018080602001828103825260188152602001807f4e6f20737563682061747472696275746520657869737421000000000000000081525060200191505060405180910390fd5b600160003373ffffffffffffffffffffffffffffffffffffffff1673ffffffffffffffffffffffffffffffffffffffff168152602001908152602001600020600101828154811061090957fe5b9060005260206000209060090201600401544211801561098757506000600160003373ffffffffffffffffffffffffffffffffffffffff1673ffffffffffffffffffffffffffffffffffffffff168152602001908152602001600020600101838154811061097357fe5b906000526020600020906009020160080154145b15610cdf576000600160003373ffffffffffffffffffffffffffffffffffffffff1673ffffffffffffffffffffffffffffffffffffffff16815260200190815260200160002060010183815481106109db57fe5b906000526020600020906009020160070160006101000a81548160ff021916908315150217905550600160003373ffffffffffffffffffffffffffffffffffffffff1673ffffffffffffffffffffffffffffffffffffffff1681526020019081526020016000206001018281548110610a5057fe5b9060005260206000209060090201600801600081548092919060010191905055506000600160003373ffffffffffffffffffffffffffffffffffffffff1673ffffffffffffffffffffffffffffffffffffffff1681526020019081526020016000206001018381548110610ac057fe5b906000526020600020906009020160030180549050905060008090505b81811015610c145760008181548110610af257fe5b9060005260206000200160009054906101000a900473ffffffffffffffffffffffffffffffffffffffff1673ffffffffffffffffffffffffffffffffffffffff166108fc67016345785d8a00009081150290604051600060405180830381858888f19350505050158015610b6a573d6000803e3d6000fd5b506000808281548110610b7957fe5b9060005260206000200160009054906101000a900473ffffffffffffffffffffffffffffffffffffffff1690806001815401808255809150509060018203906000526020600020016000909192909190916101000a81548173ffffffffffffffffffffffffffffffffffffffff021916908373ffffffffffffffffffffffffffffffffffffffff160217905550508080600101915050610add565b5060008090505b6000805490508282011015610cc657600082820181548110610c3957fe5b9060005260206000200160009054906101000a900473ffffffffffffffffffffffffffffffffffffffff1660008281548110610c7157fe5b9060005260206000200160006101000a81548173ffffffffffffffffffffffffffffffffffffffff021916908373ffffffffffffffffffffffffffffffffffffffff1602179055508080600101915050610c1b565b508060008054905003600081610cdc9190612e96565b50505b80600160003373ffffffffffffffffffffffffffffffffffffffff1673ffffffffffffffffffffffffffffffffffffffff1681526020019081526020016000206001018381548110610d2d57fe5b90600052602060002090600902016002019080519060200190610d51929190612ec2565b5060011515600160003373ffffffffffffffffffffffffffffffffffffffff1673ffffffffffffffffffffffffffffffffffffffff1681526020019081526020016000206001018381548110610da357fe5b906000526020600020906009020160070160009054906101000a900460ff1615151415610f2a5760008090505b600160003373ffffffffffffffffffffffffffffffffffffffff1673ffffffffffffffffffffffffffffffffffffffff1681526020019081526020016000206001018381548110610e1d57fe5b906000526020600020906009020160030180549050811015610f2857600160003373ffffffffffffffffffffffffffffffffffffffff1673ffffffffffffffffffffffffffffffffffffffff1681526020019081526020016000206001018381548110610e8657fe5b90600052602060002090600902016003018181548110610ea257fe5b9060005260206000200160009054906101000a900473ffffffffffffffffffffffffffffffffffffffff1673ffffffffffffffffffffffffffffffffffffffff166108fc67016345785d8a00009081150290604051600060405180830381858888f19350505050158015610f1a573d6000803e3d6000fd5b508080600101915050610dd0565b505b6000600160003373ffffffffffffffffffffffffffffffffffffffff1673ffffffffffffffffffffffffffffffffffffffff1681526020019081526020016000206001018381548110610f7957fe5b906000526020600020906009020160030181610f959190612e96565b5062278d004201600160003373ffffffffffffffffffffffffffffffffffffffff1673ffffffffffffffffffffffffffffffffffffffff1681526020019081526020016000206001018381548110610fe957fe5b9060005260206000209060090201600401819055506000600160003373ffffffffffffffffffffffffffffffffffffffff1673ffffffffffffffffffffffffffffffffffffffff168152602001908152602001600020600101838154811061104d57fe5b90600052602060002090600902016006018190555042600160003373ffffffffffffffffffffffffffffffffffffffff1673ffffffffffffffffffffffffffffffffffffffff16815260200190815260200160002060010183815481106110b057fe5b90600052602060002090600902016005018190555060018060003373ffffffffffffffffffffffffffffffffffffffff1673ffffffffffffffffffffffffffffffffffffffff168152602001908152602001600020600101838154811061111357fe5b906000526020600020906009020160070160006101000a81548160ff0219169083151502179055505050565b600160008373ffffffffffffffffffffffffffffffffffffffff1673ffffffffffffffffffffffffffffffffffffffff1681526020019081526020016000206001018054905081106111f9576040517f08c379a00000000000000000000000000000000000000000000000000000000081526004018080602001828103825260188152602001807f4e6f20737563682061747472696275746520657869737421000000000000000081525060200191505060405180910390fd5b6000809050600090505b600160003373ffffffffffffffffffffffffffffffffffffffff1673ffffffffffffffffffffffffffffffffffffffff168152602001908152602001600020600201805490508110156116fe578273ffffffffffffffffffffffffffffffffffffffff16600160003373ffffffffffffffffffffffffffffffffffffffff1673ffffffffffffffffffffffffffffffffffffffff16815260200190815260200160002060020182815481106112b457fe5b906000526020600020906002020160000160009054906101000a900473ffffffffffffffffffffffffffffffffffffffff1673ffffffffffffffffffffffffffffffffffffffff16148015611366575081600160003373ffffffffffffffffffffffffffffffffffffffff1673ffffffffffffffffffffffffffffffffffffffff168152602001908152602001600020600201828154811061135257fe5b906000526020600020906002020160010154145b156116f15760011515600160008573ffffffffffffffffffffffffffffffffffffffff1673ffffffffffffffffffffffffffffffffffffffff16815260200190815260200160002060010183815481106113bc57fe5b906000526020600020906009020160070160009054906101000a900460ff1615151415611433573373ffffffffffffffffffffffffffffffffffffffff166108fc67016345785d8a00009081150290604051600060405180830381858888f19350505050158015611431573d6000803e3d6000fd5b505b60008190505b600160003373ffffffffffffffffffffffffffffffffffffffff1673ffffffffffffffffffffffffffffffffffffffff168152602001908152602001600020600201805490508110156115c057600160003373ffffffffffffffffffffffffffffffffffffffff1673ffffffffffffffffffffffffffffffffffffffff16815260200190815260200160002060020160018201815481106114d657fe5b9060005260206000209060020201600160003373ffffffffffffffffffffffffffffffffffffffff1673ffffffffffffffffffffffffffffffffffffffff168152602001908152602001600020600201828154811061153157fe5b90600052602060002090600202016000820160009054906101000a900473ffffffffffffffffffffffffffffffffffffffff168160000160006101000a81548173ffffffffffffffffffffffffffffffffffffffff021916908373ffffffffffffffffffffffffffffffffffffffff160217905550600182015481600101559050508080600101915050611439565b50600160003373ffffffffffffffffffffffffffffffffffffffff1673ffffffffffffffffffffffffffffffffffffffff16815260200190815260200160002060020160018060003373ffffffffffffffffffffffffffffffffffffffff1673ffffffffffffffffffffffffffffffffffffffff16815260200190815260200160002060020180549050038154811061165557fe5b9060005260206000209060020201600080820160006101000a81549073ffffffffffffffffffffffffffffffffffffffff021916905560018201600090555050600160003373ffffffffffffffffffffffffffffffffffffffff1673ffffffffffffffffffffffffffffffffffffffff1681526020019081526020016000206002018054809190600190036116ea9190612f42565b50506117ba565b8080600101915050611203565b600160003373ffffffffffffffffffffffffffffffffffffffff1673ffffffffffffffffffffffffffffffffffffffff1681526020019081526020016000206002018054905081106117b8576040517f08c379a000000000000000000000000000000000000000000000000000000000815260040180806020018281038252601e8152602001807f596f7520646f6e277420686176652073756368207369676e617475726521000081525060200191505060405180910390fd5b505b5050565b600160008373ffffffffffffffffffffffffffffffffffffffff1673ffffffffffffffffffffffffffffffffffffffff168152602001908152602001600020600101805490508110611878576040517f08c379a00000000000000000000000000000000000000000000000000000000081526004018080602001828103825260188152602001807f4e6f20737563682061747472696275746520657869737421000000000000000081525060200191505060405180910390fd5b67016345785d8a00003410156118f6576040517f08c379a000000000000000000000000000000000000000000000000000000000815260040180806020018281038252601a8152602001807f596f75206e65656420746f20706179206d6f7265206d6f6e657900000000000081525060200191505060405180910390fd5b42600160008473ffffffffffffffffffffffffffffffffffffffff1673ffffffffffffffffffffffffffffffffffffffff168152602001908152602001600020600101828154811061194457fe5b906000526020600020906009020160040154116119c9576040517f08c379a000000000000000000000000000000000000000000000000000000000815260040180806020018281038252601a8152602001807f54686973204174747269627574652069732054696d652055702100000000000081525060200191505060405180910390fd5b60001515600160003373ffffffffffffffffffffffffffffffffffffffff1673ffffffffffffffffffffffffffffffffffffffff16815260200190815260200160002060000160009054906101000a900460ff1615151415611ae65760003390806001815401808255809150509060018203906000526020600020016000909192909190916101000a81548173ffffffffffffffffffffffffffffffffffffffff021916908373ffffffffffffffffffffffffffffffffffffffff1602179055505060018060003373ffffffffffffffffffffffffffffffffffffffff1673ffffffffffffffffffffffffffffffffffffffff16815260200190815260200160002060000160006101000a81548160ff0219169083151502179055505b60008090505b600160008473ffffffffffffffffffffffffffffffffffffffff1673ffffffffffffffffffffffffffffffffffffffff1681526020019081526020016000206001018281548110611b3957fe5b906000526020600020906009020160030180549050811015611c7a573373ffffffffffffffffffffffffffffffffffffffff16600160008573ffffffffffffffffffffffffffffffffffffffff1673ffffffffffffffffffffffffffffffffffffffff1681526020019081526020016000206001018381548110611bb957fe5b90600052602060002090600902016003018281548110611bd557fe5b9060005260206000200160009054906101000a900473ffffffffffffffffffffffffffffffffffffffff1673ffffffffffffffffffffffffffffffffffffffff161415611c6d576040517f08c379a000000000000000000000000000000000000000000000000000000000815260040180806020018281038252602581526020018061305b6025913960400191505060405180910390fd5b8080600101915050611aec565b50600160008373ffffffffffffffffffffffffffffffffffffffff1673ffffffffffffffffffffffffffffffffffffffff1681526020019081526020016000206001018181548110611cc857fe5b90600052602060002090600902016003013390806001815401808255809150509060018203906000526020600020016000909192909190916101000a81548173ffffffffffffffffffffffffffffffffffffffff021916908373ffffffffffffffffffffffffffffffffffffffff16021790555050611d45612f74565b82816000019073ffffffffffffffffffffffffffffffffffffffff16908173ffffffffffffffffffffffffffffffffffffffff168152505081816020018181525050600160003373ffffffffffffffffffffffffffffffffffffffff1673ffffffffffffffffffffffffffffffffffffffff168152602001908152602001600020600201819080600181540180825580915050906001820390600052602060002090600202016000909192909190915060008201518160000160006101000a81548173ffffffffffffffffffffffffffffffffffffffff021916908373ffffffffffffffffffffffffffffffffffffffff16021790555060208201518160010155505050505050565b600160003373ffffffffffffffffffffffffffffffffffffffff1673ffffffffffffffffffffffffffffffffffffffff168152602001908152602001600020600101805490508110611f08576040517f08c379a00000000000000000000000000000000000000000000000000000000081526004018080602001828103825260188152602001807f4e6f20737563682061747472696275746520657869737421000000000000000081525060200191505060405180910390fd5b600160003373ffffffffffffffffffffffffffffffffffffffff1673ffffffffffffffffffffffffffffffffffffffff1681526020019081526020016000206001018181548110611f5557fe5b90600052602060002090600902016004015442118015611fd357506000600160003373ffffffffffffffffffffffffffffffffffffffff1673ffffffffffffffffffffffffffffffffffffffff1681526020019081526020016000206001018281548110611fbf57fe5b906000526020600020906009020160080154145b1561232b576000600160003373ffffffffffffffffffffffffffffffffffffffff1673ffffffffffffffffffffffffffffffffffffffff168152602001908152602001600020600101828154811061202757fe5b906000526020600020906009020160070160006101000a81548160ff021916908315150217905550600160003373ffffffffffffffffffffffffffffffffffffffff1673ffffffffffffffffffffffffffffffffffffffff168152602001908152602001600020600101818154811061209c57fe5b9060005260206000209060090201600801600081548092919060010191905055506000600160003373ffffffffffffffffffffffffffffffffffffffff1673ffffffffffffffffffffffffffffffffffffffff168152602001908152602001600020600101828154811061210c57fe5b906000526020600020906009020160030180549050905060008090505b81811015612260576000818154811061213e57fe5b9060005260206000200160009054906101000a900473ffffffffffffffffffffffffffffffffffffffff1673ffffffffffffffffffffffffffffffffffffffff166108fc67016345785d8a00009081150290604051600060405180830381858888f193505050501580156121b6573d6000803e3d6000fd5b5060008082815481106121c557fe5b9060005260206000200160009054906101000a900473ffffffffffffffffffffffffffffffffffffffff1690806001815401808255809150509060018203906000526020600020016000909192909190916101000a81548173ffffffffffffffffffffffffffffffffffffffff021916908373ffffffffffffffffffffffffffffffffffffffff160217905550508080600101915050612129565b5060008090505b60008054905082820110156123125760008282018154811061228557fe5b9060005260206000200160009054906101000a900473ffffffffffffffffffffffffffffffffffffffff16600082815481106122bd57fe5b9060005260206000200160006101000a81548173ffffffffffffffffffffffffffffffffffffffff021916908373ffffffffffffffffffffffffffffffffffffffff1602179055508080600101915050612267565b5080600080549050036000816123289190612e96565b50505b600160003373ffffffffffffffffffffffffffffffffffffffff1673ffffffffffffffffffffffffffffffffffffffff168152602001908152602001600020600101818154811061237857fe5b906000526020600020906009020160050154421015612668573467016345785d8a0000600160003373ffffffffffffffffffffffffffffffffffffffff1673ffffffffffffffffffffffffffffffffffffffff16815260200190815260200160002060010183815481106123e857fe5b906000526020600020906009020160060154021061246e576040517f08c379a00000000000000000000000000000000000000000000000000000000081526004018080602001828103825260188152602001807f596f752073686f756c6420706179206d6f72652066656521000000000000000081525060200191505060405180910390fd5b600160003373ffffffffffffffffffffffffffffffffffffffff1673ffffffffffffffffffffffffffffffffffffffff16815260200190815260200160002060010181815481106124bb57fe5b906000526020600020906009020160060160008154809291906001019190505550600160003373ffffffffffffffffffffffffffffffffffffffff1673ffffffffffffffffffffffffffffffffffffffff168152602001908152602001600020600101818154811061252957fe5b906000526020600020906009020160040154600160003373ffffffffffffffffffffffffffffffffffffffff1673ffffffffffffffffffffffffffffffffffffffff168152602001908152602001600020600101828154811061258857fe5b90600052602060002090600902016005018190555062278d00600160003373ffffffffffffffffffffffffffffffffffffffff1673ffffffffffffffffffffffffffffffffffffffff16815260200190815260200160002060010182815481106125ee57fe5b90600052602060002090600902016004015401600160003373ffffffffffffffffffffffffffffffffffffffff1673ffffffffffffffffffffffffffffffffffffffff168152602001908152602001600020600101828154811061264e57fe5b906000526020600020906009020160040181905550612854565b6000600160003373ffffffffffffffffffffffffffffffffffffffff1673ffffffffffffffffffffffffffffffffffffffff16815260200190815260200160002060010182815481106126b757fe5b906000526020600020906009020160060181905550600160003373ffffffffffffffffffffffffffffffffffffffff1673ffffffffffffffffffffffffffffffffffffffff168152602001908152602001600020600101818154811061271957fe5b906000526020600020906009020160040154600160003373ffffffffffffffffffffffffffffffffffffffff1673ffffffffffffffffffffffffffffffffffffffff168152602001908152602001600020600101828154811061277857fe5b90600052602060002090600902016005018190555062278d00600160003373ffffffffffffffffffffffffffffffffffffffff1673ffffffffffffffffffffffffffffffffffffffff16815260200190815260200160002060010182815481106127de57fe5b90600052602060002090600902016004015401600160003373ffffffffffffffffffffffffffffffffffffffff1673ffffffffffffffffffffffffffffffffffffffff168152602001908152602001600020600101828154811061283e57fe5b9060005260206000209060090201600401819055505b50565b606080600080600160008773ffffffffffffffffffffffffffffffffffffffff1673ffffffffffffffffffffffffffffffffffffffff168152602001908152602001600020600101805490508510612917576040517f08c379a00000000000000000000000000000000000000000000000000000000081526004018080602001828103825260188152602001807f4e6f20737563682061747472696275746520657869737421000000000000000081525060200191505060405180910390fd5b42600160008873ffffffffffffffffffffffffffffffffffffffff1673ffffffffffffffffffffffffffffffffffffffff168152602001908152602001600020600101868154811061296557fe5b906000526020600020906009020160040154116129ea576040517f08c379a000000000000000000000000000000000000000000000000000000000815260040180806020018281038252601a8152602001807f54686973204174747269627574652069732054696d652055702100000000000081525060200191505060405180910390fd5b600160008773ffffffffffffffffffffffffffffffffffffffff1673ffffffffffffffffffffffffffffffffffffffff1681526020019081526020016000206001018581548110612a3757fe5b9060005260206000209060090201600101600160008873ffffffffffffffffffffffffffffffffffffffff1673ffffffffffffffffffffffffffffffffffffffff1681526020019081526020016000206001018681548110612a9557fe5b9060005260206000209060090201600201600160008973ffffffffffffffffffffffffffffffffffffffff1673ffffffffffffffffffffffffffffffffffffffff1681526020019081526020016000206001018781548110612af357fe5b906000526020600020906009020160040154600160008a73ffffffffffffffffffffffffffffffffffffffff1673ffffffffffffffffffffffffffffffffffffffff1681526020019081526020016000206001018881548110612b5257fe5b906000526020600020906009020160030180549050838054600181600116156101000203166002900480601f016020809104026020016040519081016040528092919081815260200182805460018160011615610100020316600290048015612bfc5780601f10612bd157610100808354040283529160200191612bfc565b820191906000526020600020905b815481529060010190602001808311612bdf57829003601f168201915b50505050509350828054600181600116156101000203166002900480601f016020809104026020016040519081016040528092919081815260200182805460018160011615610100020316600290048015612c985780601f10612c6d57610100808354040283529160200191612c98565b820191906000526020600020905b815481529060010190602001808311612c7b57829003601f168201915b50505050509250935093509350935092959194509250565b60606000805480602002602001604051908101604052809291908181526020018280548015612d3457602002820191906000526020600020905b8160009054906101000a900473ffffffffffffffffffffffffffffffffffffffff1673ffffffffffffffffffffffffffffffffffffffff1681526020019060010190808311612cea575b5050505050905090565b60405180610120016040528060008152602001606081526020016060815260200160608152602001600081526020016000815260200160008152602001600015158152602001600081525090565b828054600181600116156101000203166002900490600052602060002090601f016020900481019282601f10612dcd57805160ff1916838001178555612dfb565b82800160010185558215612dfb579182015b82811115612dfa578251825591602001919060010190612ddf565b5b509050612e089190612fa4565b5090565b828054828255906000526020600020908101928215612e85579160200282015b82811115612e845782518260006101000a81548173ffffffffffffffffffffffffffffffffffffffff021916908373ffffffffffffffffffffffffffffffffffffffff16021790555091602001919060010190612e2c565b5b509050612e929190612fc9565b5090565b815481835581811115612ebd57818360005260206000209182019101612ebc9190612fa4565b5b505050565b828054600181600116156101000203166002900490600052602060002090601f016020900481019282601f10612f0357805160ff1916838001178555612f31565b82800160010185558215612f31579182015b82811115612f30578251825591602001919060010190612f15565b5b509050612f3e9190612fa4565b5090565b815481835581811115612f6f57600202816002028360005260206000209182019101612f6e919061300c565b5b505050565b6040518060400160405280600073ffffffffffffffffffffffffffffffffffffffff168152602001600081525090565b612fc691905b80821115612fc2576000816000905550600101612faa565b5090565b90565b61300991905b8082111561300557600081816101000a81549073ffffffffffffffffffffffffffffffffffffffff021916905550600101612fcf565b5090565b90565b61305791905b8082111561305357600080820160006101000a81549073ffffffffffffffffffffffffffffffffffffffff0219169055600182016000905550600201613012565b5090565b9056fe596f75206861766520616c7265616479207369676e20746869732061747472696275746521a165627a7a72305820b8b6dc5b9552732072b73dd7f106c7b3fe57ee28ef6467139afa1d7dc2890db60029",
  "source": "pragma solidity >= 0.4.0 < 0.6.0;\r\n\r\ncontract Cert{\r\n    \r\n    struct Attribute{\r\n        uint ID;\r\n        string name;\r\n        string data;\r\n        address payable[] signer;\r\n        uint update_time;\r\n        uint duration_time;\r\n        uint duration_number;\r\n        bool give_back;\r\n        uint paytime;\r\n    }\r\n    struct Signature{\r\n        address target;\r\n        uint ID;\r\n    }\r\n    struct Identity {\r\n        bool exist;\r\n        Attribute[] attrib_list;\r\n        Signature[] sign_list;\r\n    }\r\n    address payable[] exist_list;\r\n    mapping(address=>Identity) identifiers;\r\n    \r\n    function addAttribute(string memory name, string memory data) public{\r\n        if(identifiers[msg.sender].exist == false)\r\n        {\r\n            exist_list.push(msg.sender);\r\n            identifiers[msg.sender].exist = true;\r\n        }\r\n        Attribute memory temp;\r\n        temp.ID = identifiers[msg.sender].attrib_list.length;\r\n        temp.name = name;\r\n        temp.data = data;\r\n        temp.update_time = now+ 1 seconds;\r\n        temp.duration_number = 0;\r\n        temp.duration_time = now;\r\n        temp.give_back = true;\r\n        temp.paytime = 0;\r\n        identifiers[msg.sender].attrib_list.push(temp);\r\n    }\r\n    \r\n    function Sign(address target, uint id) public payable{\r\n        require(id < identifiers[target].attrib_list.length, \"No such attribute exist!\");\r\n        require(msg.value >= 100000000000000000, \"You need to pay more money\");\r\n        require(identifiers[target].attrib_list[id].update_time > now, \"This Attribute is Time Up!\");\r\n\r\n        if(identifiers[msg.sender].exist == false)\r\n        {\r\n            exist_list.push(msg.sender);\r\n            identifiers[msg.sender].exist = true;\r\n        }\r\n        for(uint i=0; i< identifiers[target].attrib_list[id].signer.length; i++)\r\n        {\r\n            require(identifiers[target].attrib_list[id].signer[i]!= msg.sender, \"You have already sign this attribute!\");\r\n        }\r\n        identifiers[target].attrib_list[id].signer.push(msg.sender);\r\n        Signature memory temp;\r\n        temp.target = target;\r\n        temp.ID = id;\r\n        identifiers[msg.sender].sign_list.push(temp);\r\n    }\r\n    function getAttribute(address target, uint ID) public view returns(string memory, string memory,uint, uint){\r\n        require(ID < identifiers[target].attrib_list.length, \"No such attribute exist!\");\r\n        require(identifiers[target].attrib_list[ID].update_time > now, \"This Attribute is Time Up!\");\r\n        return (identifiers[target].attrib_list[ID].name, identifiers[target].attrib_list[ID].data, identifiers[target].attrib_list[ID].update_time, identifiers[target].attrib_list[ID].signer.length);\r\n    }\r\n    \r\n    function revokeSignature(address target, uint ID) public payable{\r\n        require(ID < identifiers[target].attrib_list.length, \"No such attribute exist!\");\r\n        uint i=0;\r\n        for(i=0; i< identifiers[msg.sender].sign_list.length; i++)\r\n        {\r\n            if(identifiers[msg.sender].sign_list[i].target==target && identifiers[msg.sender].sign_list[i].ID==ID)\r\n            {\r\n                if(identifiers[target].attrib_list[ID].give_back == true)\r\n                {\r\n                    msg.sender.transfer(100000000000000000);\r\n                }\r\n                \r\n                for(uint j=i ; j < identifiers[msg.sender].sign_list.length; j++)\r\n                {\r\n                    identifiers[msg.sender].sign_list[j] = identifiers[msg.sender].sign_list[j+1];\r\n                }\r\n                delete identifiers[msg.sender].sign_list[identifiers[msg.sender].sign_list.length-1];\r\n                identifiers[msg.sender].sign_list.length--;\r\n                return;\r\n            }\r\n        }\r\n        require(i < identifiers[msg.sender].sign_list.length, \"You don't have such signature!\");\r\n    }\r\n\r\n    function updateAttribute(uint ID, string memory data)public payable{\r\n        require(ID < identifiers[msg.sender].attrib_list.length, \"No such attribute exist!\");\r\n        if(now > identifiers[msg.sender].attrib_list[ID].update_time && identifiers[msg.sender].attrib_list[ID].paytime == 0)\r\n        {\r\n            identifiers[msg.sender].attrib_list[ID].give_back = false;\r\n            identifiers[msg.sender].attrib_list[ID].paytime++;\r\n            uint temp;\r\n            temp = identifiers[msg.sender].attrib_list[ID].signer.length;\r\n            for(uint k=0; k < temp; k++)\r\n            {\r\n                exist_list[k].transfer(100000000000000000);\r\n                exist_list.push(exist_list[k]);\r\n            }\r\n            \r\n            for(uint k=0; k+temp < exist_list.length; k++)\r\n            {\r\n                exist_list[k] = exist_list[k+temp];\r\n            }\r\n            exist_list.length = exist_list.length - temp;\r\n        }\r\n        identifiers[msg.sender].attrib_list[ID].data = data;\r\n        if(identifiers[msg.sender].attrib_list[ID].give_back == true)\r\n        {\r\n            for(uint i=0; i < identifiers[msg.sender].attrib_list[ID].signer.length; i++)\r\n            {\r\n                identifiers[msg.sender].attrib_list[ID].signer[i].transfer(100000000000000000);\r\n            }\r\n        }\r\n        identifiers[msg.sender].attrib_list[ID].signer.length = 0;\r\n        identifiers[msg.sender].attrib_list[ID].update_time = now+ 30 * 1 days;\r\n        identifiers[msg.sender].attrib_list[ID].duration_number = 0;\r\n        identifiers[msg.sender].attrib_list[ID].duration_time = now;\r\n        identifiers[msg.sender].attrib_list[ID].give_back = true;\r\n    }\r\n    function show() public view returns(address payable[] memory){\r\n        return exist_list;\r\n    }\r\n    \r\n    function extendTime(uint ID)public payable{\r\n        require(ID < identifiers[msg.sender].attrib_list.length, \"No such attribute exist!\");\r\n        if(now > identifiers[msg.sender].attrib_list[ID].update_time && identifiers[msg.sender].attrib_list[ID].paytime == 0)\r\n        {\r\n            identifiers[msg.sender].attrib_list[ID].give_back = false;\r\n            identifiers[msg.sender].attrib_list[ID].paytime++;\r\n            uint temp;\r\n            temp = identifiers[msg.sender].attrib_list[ID].signer.length;\r\n            for(uint k=0; k < temp; k++)\r\n            {\r\n                exist_list[k].transfer(100000000000000000);\r\n                exist_list.push(exist_list[k]);\r\n            }\r\n            \r\n            for(uint k=0; k+temp < exist_list.length; k++)\r\n            {\r\n                exist_list[k] = exist_list[k+temp];\r\n            }\r\n            exist_list.length = exist_list.length - temp;\r\n        }\r\n        if(now < identifiers[msg.sender].attrib_list[ID].duration_time)\r\n        {\r\n            require(identifiers[msg.sender].attrib_list[ID].duration_number * 100000000000000000 < msg.value, \"You should pay more fee!\");\r\n            identifiers[msg.sender].attrib_list[ID].duration_number++;\r\n            identifiers[msg.sender].attrib_list[ID].duration_time = identifiers[msg.sender].attrib_list[ID].update_time;\r\n            identifiers[msg.sender].attrib_list[ID].update_time = identifiers[msg.sender].attrib_list[ID].update_time + 30*1 days;\r\n        }\r\n        else\r\n        {\r\n            identifiers[msg.sender].attrib_list[ID].duration_number = 0;\r\n            identifiers[msg.sender].attrib_list[ID].duration_time = identifiers[msg.sender].attrib_list[ID].update_time;\r\n            identifiers[msg.sender].attrib_list[ID].update_time = identifiers[msg.sender].attrib_list[ID].update_time + 30*1 days;\r\n        }\r\n    }\r\n}",
  "sourcePath": "C:/Users/chris/Desktop/identity_and_certification/contracts/Cert.sol",
  "compiler": {
    "name": "solc",
    "version": "0.5.8+commit.23d335f2.Emscripten.clang"
  },
  "schemaVersion": "3.0.11",
  "updatedAt": "2019-06-30T03:09:37.464Z",
  "devdoc": {
    "methods": {}
  },
  "userdoc": {
    "methods": {}
  }
}