{
  "contractName": "Cert",
  "abi": [
    {
      "constant": false,
      "inputs": [
        {
          "name": "name",
          "type": "string"
        },
        {
          "name": "data",
          "type": "string"
        }
      ],
      "name": "addAttribute",
      "outputs": [],
      "payable": false,
      "stateMutability": "nonpayable",
      "type": "function"
    },
    {
      "constant": false,
      "inputs": [
        {
          "name": "target",
          "type": "address"
        },
        {
          "name": "id",
          "type": "uint256"
        }
      ],
      "name": "Sign",
      "outputs": [],
      "payable": true,
      "stateMutability": "payable",
      "type": "function"
    },
    {
      "constant": false,
      "inputs": [
        {
          "name": "target",
          "type": "address"
        },
        {
          "name": "ID",
          "type": "uint256"
        }
      ],
      "name": "getAttribute",
      "outputs": [
        {
          "name": "",
          "type": "string"
        }
      ],
      "payable": false,
      "stateMutability": "nonpayable",
      "type": "function"
    },
    {
      "constant": false,
      "inputs": [
        {
          "name": "target",
          "type": "address"
        },
        {
          "name": "ID",
          "type": "uint256"
        }
      ],
      "name": "revokeSignature",
      "outputs": [],
      "payable": true,
      "stateMutability": "payable",
      "type": "function"
    },
    {
      "constant": false,
      "inputs": [
        {
          "name": "ID",
          "type": "uint256"
        },
        {
          "name": "data",
          "type": "string"
        }
      ],
      "name": "updateAttribute",
      "outputs": [],
      "payable": true,
      "stateMutability": "payable",
      "type": "function"
    },
    {
      "constant": true,
      "inputs": [],
      "name": "show",
      "outputs": [
        {
          "name": "",
          "type": "address[]"
        }
      ],
      "payable": false,
      "stateMutability": "view",
      "type": "function"
    },
    {
      "constant": false,
      "inputs": [
        {
          "name": "ID",
          "type": "uint256"
        }
      ],
      "name": "extendTime",
      "outputs": [],
      "payable": true,
      "stateMutability": "payable",
      "type": "function"
    }
  ],
  "bytecode": "0x608060405234801561001057600080fd5b50612e68806100206000396000f3fe6080604052600436106100705760003560e01c80639a10b6121161004e5780639a10b612146102e7578063a27aebbc14610335578063c2ee419014610363578063cc80f6f31461043757610070565b80632ba56834146100755780632ff75ca7146101d457806338631be514610299575b600080fd5b34801561008157600080fd5b506101d26004803603604081101561009857600080fd5b81019080803590602001906401000000008111156100b557600080fd5b8201836020820111156100c757600080fd5b803590602001918460018302840111640100000000831117156100e957600080fd5b91908080601f016020809104026020016040519081016040528093929190818152602001838380828437600081840152601f19601f8201169050808301925050505050505091929192908035906020019064010000000081111561014c57600080fd5b82018360208201111561015e57600080fd5b8035906020019184600183028401116401000000008311171561018057600080fd5b91908080601f016020809104026020016040519081016040528093929190818152602001838380828437600081840152601f19601f8201169050808301925050505050505091929192905050506104a3565b005b610297600480360360408110156101ea57600080fd5b81019080803590602001909291908035906020019064010000000081111561021157600080fd5b82018360208201111561022357600080fd5b8035906020019184600183028401116401000000008311171561024557600080fd5b91908080601f016020809104026020016040519081016040528093929190818152602001838380828437600081840152601f19601f82011690508083019250505050505050919291929050505061078a565b005b6102e5600480360360408110156102af57600080fd5b81019080803573ffffffffffffffffffffffffffffffffffffffff169060200190929190803590602001909291905050506110c7565b005b610333600480360360408110156102fd57600080fd5b81019080803573ffffffffffffffffffffffffffffffffffffffff16906020019092919080359060200190929190505050611746565b005b6103616004803603602081101561034b57600080fd5b8101908080359060200190929190505050611dd6565b005b34801561036f57600080fd5b506103bc6004803603604081101561038657600080fd5b81019080803573ffffffffffffffffffffffffffffffffffffffff169060200190929190803590602001909291905050506127df565b6040518080602001828103825283818151815260200191508051906020019080838360005b838110156103fc5780820151818401526020810190506103e1565b50505050905090810190601f1680156104295780820380516001836020036101000a031916815260200191505b509250505060405180910390f35b34801561044357600080fd5b5061044c612a6d565b6040518080602001828103825283818151815260200191508051906020019060200280838360005b8381101561048f578082015181840152602081019050610474565b505050509050019250505060405180910390f35b60001515600160003373ffffffffffffffffffffffffffffffffffffffff1673ffffffffffffffffffffffffffffffffffffffff16815260200190815260200160002060000160009054906101000a900460ff16151514156105c05760003390806001815401808255809150509060018203906000526020600020016000909192909190916101000a81548173ffffffffffffffffffffffffffffffffffffffff021916908373ffffffffffffffffffffffffffffffffffffffff1602179055505060018060003373ffffffffffffffffffffffffffffffffffffffff1673ffffffffffffffffffffffffffffffffffffffff16815260200190815260200160002060000160006101000a81548160ff0219169083151502179055505b6105c8612afb565b600160003373ffffffffffffffffffffffffffffffffffffffff1673ffffffffffffffffffffffffffffffffffffffff1681526020019081526020016000206001018054905081600001818152505082816020018190525081816040018190525062278d00420181608001818152505060008160c0018181525050428160a001818152505060018160e0019015159081151581525050600081610100018181525050600160003373ffffffffffffffffffffffffffffffffffffffff1673ffffffffffffffffffffffffffffffffffffffff16815260200190815260200160002060010181908060018154018082558091505090600182039060005260206000209060090201600090919290919091506000820151816000015560208201518160010190805190602001906106fe929190612b49565b50604082015181600201908051906020019061071b929190612b49565b506060820151816003019080519060200190610738929190612bc9565b506080820151816004015560a0820151816005015560c0820151816006015560e08201518160070160006101000a81548160ff0219169083151502179055506101008201518160080155505050505050565b600160003373ffffffffffffffffffffffffffffffffffffffff1673ffffffffffffffffffffffffffffffffffffffff168152602001908152602001600020600101805490508210610844576040517f08c379a00000000000000000000000000000000000000000000000000000000081526004018080602001828103825260188152602001807f4e6f20737563682061747472696275746520657869737421000000000000000081525060200191505060405180910390fd5b600160003373ffffffffffffffffffffffffffffffffffffffff1673ffffffffffffffffffffffffffffffffffffffff168152602001908152602001600020600101828154811061089157fe5b9060005260206000209060090201600401544211801561090f57506000600160003373ffffffffffffffffffffffffffffffffffffffff1673ffffffffffffffffffffffffffffffffffffffff16815260200190815260200160002060010183815481106108fb57fe5b906000526020600020906009020160080154145b15610c67576000600160003373ffffffffffffffffffffffffffffffffffffffff1673ffffffffffffffffffffffffffffffffffffffff168152602001908152602001600020600101838154811061096357fe5b906000526020600020906009020160070160006101000a81548160ff021916908315150217905550600160003373ffffffffffffffffffffffffffffffffffffffff1673ffffffffffffffffffffffffffffffffffffffff16815260200190815260200160002060010182815481106109d857fe5b9060005260206000209060090201600801600081548092919060010191905055506000600160003373ffffffffffffffffffffffffffffffffffffffff1673ffffffffffffffffffffffffffffffffffffffff1681526020019081526020016000206001018381548110610a4857fe5b906000526020600020906009020160030180549050905060008090505b81811015610b9c5760008181548110610a7a57fe5b9060005260206000200160009054906101000a900473ffffffffffffffffffffffffffffffffffffffff1673ffffffffffffffffffffffffffffffffffffffff166108fc67016345785d8a00009081150290604051600060405180830381858888f19350505050158015610af2573d6000803e3d6000fd5b506000808281548110610b0157fe5b9060005260206000200160009054906101000a900473ffffffffffffffffffffffffffffffffffffffff1690806001815401808255809150509060018203906000526020600020016000909192909190916101000a81548173ffffffffffffffffffffffffffffffffffffffff021916908373ffffffffffffffffffffffffffffffffffffffff160217905550508080600101915050610a65565b5060008090505b6000805490508282011015610c4e57600082820181548110610bc157fe5b9060005260206000200160009054906101000a900473ffffffffffffffffffffffffffffffffffffffff1660008281548110610bf957fe5b9060005260206000200160006101000a81548173ffffffffffffffffffffffffffffffffffffffff021916908373ffffffffffffffffffffffffffffffffffffffff1602179055508080600101915050610ba3565b508060008054905003600081610c649190612c53565b50505b80600160003373ffffffffffffffffffffffffffffffffffffffff1673ffffffffffffffffffffffffffffffffffffffff1681526020019081526020016000206001018381548110610cb557fe5b90600052602060002090600902016002019080519060200190610cd9929190612c7f565b5060011515600160003373ffffffffffffffffffffffffffffffffffffffff1673ffffffffffffffffffffffffffffffffffffffff1681526020019081526020016000206001018381548110610d2b57fe5b906000526020600020906009020160070160009054906101000a900460ff1615151415610eb25760008090505b600160003373ffffffffffffffffffffffffffffffffffffffff1673ffffffffffffffffffffffffffffffffffffffff1681526020019081526020016000206001018381548110610da557fe5b906000526020600020906009020160030180549050811015610eb057600160003373ffffffffffffffffffffffffffffffffffffffff1673ffffffffffffffffffffffffffffffffffffffff1681526020019081526020016000206001018381548110610e0e57fe5b90600052602060002090600902016003018181548110610e2a57fe5b9060005260206000200160009054906101000a900473ffffffffffffffffffffffffffffffffffffffff1673ffffffffffffffffffffffffffffffffffffffff166108fc67016345785d8a00009081150290604051600060405180830381858888f19350505050158015610ea2573d6000803e3d6000fd5b508080600101915050610d58565b505b6000600160003373ffffffffffffffffffffffffffffffffffffffff1673ffffffffffffffffffffffffffffffffffffffff1681526020019081526020016000206001018381548110610f0157fe5b906000526020600020906009020160030181610f1d9190612c53565b5062278d004201600160003373ffffffffffffffffffffffffffffffffffffffff1673ffffffffffffffffffffffffffffffffffffffff1681526020019081526020016000206001018381548110610f7157fe5b9060005260206000209060090201600401819055506000600160003373ffffffffffffffffffffffffffffffffffffffff1673ffffffffffffffffffffffffffffffffffffffff1681526020019081526020016000206001018381548110610fd557fe5b90600052602060002090600902016006018190555042600160003373ffffffffffffffffffffffffffffffffffffffff1673ffffffffffffffffffffffffffffffffffffffff168152602001908152602001600020600101838154811061103857fe5b90600052602060002090600902016005018190555060018060003373ffffffffffffffffffffffffffffffffffffffff1673ffffffffffffffffffffffffffffffffffffffff168152602001908152602001600020600101838154811061109b57fe5b906000526020600020906009020160070160006101000a81548160ff0219169083151502179055505050565b600160008373ffffffffffffffffffffffffffffffffffffffff1673ffffffffffffffffffffffffffffffffffffffff168152602001908152602001600020600101805490508110611181576040517f08c379a00000000000000000000000000000000000000000000000000000000081526004018080602001828103825260188152602001807f4e6f20737563682061747472696275746520657869737421000000000000000081525060200191505060405180910390fd5b6000809050600090505b600160003373ffffffffffffffffffffffffffffffffffffffff1673ffffffffffffffffffffffffffffffffffffffff16815260200190815260200160002060020180549050811015611686578273ffffffffffffffffffffffffffffffffffffffff16600160003373ffffffffffffffffffffffffffffffffffffffff1673ffffffffffffffffffffffffffffffffffffffff168152602001908152602001600020600201828154811061123c57fe5b906000526020600020906002020160000160009054906101000a900473ffffffffffffffffffffffffffffffffffffffff1673ffffffffffffffffffffffffffffffffffffffff161480156112ee575081600160003373ffffffffffffffffffffffffffffffffffffffff1673ffffffffffffffffffffffffffffffffffffffff16815260200190815260200160002060020182815481106112da57fe5b906000526020600020906002020160010154145b156116795760011515600160008573ffffffffffffffffffffffffffffffffffffffff1673ffffffffffffffffffffffffffffffffffffffff168152602001908152602001600020600101838154811061134457fe5b906000526020600020906009020160070160009054906101000a900460ff16151514156113bb573373ffffffffffffffffffffffffffffffffffffffff166108fc67016345785d8a00009081150290604051600060405180830381858888f193505050501580156113b9573d6000803e3d6000fd5b505b60008190505b600160003373ffffffffffffffffffffffffffffffffffffffff1673ffffffffffffffffffffffffffffffffffffffff1681526020019081526020016000206002018054905081101561154857600160003373ffffffffffffffffffffffffffffffffffffffff1673ffffffffffffffffffffffffffffffffffffffff168152602001908152602001600020600201600182018154811061145e57fe5b9060005260206000209060020201600160003373ffffffffffffffffffffffffffffffffffffffff1673ffffffffffffffffffffffffffffffffffffffff16815260200190815260200160002060020182815481106114b957fe5b90600052602060002090600202016000820160009054906101000a900473ffffffffffffffffffffffffffffffffffffffff168160000160006101000a81548173ffffffffffffffffffffffffffffffffffffffff021916908373ffffffffffffffffffffffffffffffffffffffff1602179055506001820154816001015590505080806001019150506113c1565b50600160003373ffffffffffffffffffffffffffffffffffffffff1673ffffffffffffffffffffffffffffffffffffffff16815260200190815260200160002060020160018060003373ffffffffffffffffffffffffffffffffffffffff1673ffffffffffffffffffffffffffffffffffffffff1681526020019081526020016000206002018054905003815481106115dd57fe5b9060005260206000209060020201600080820160006101000a81549073ffffffffffffffffffffffffffffffffffffffff021916905560018201600090555050600160003373ffffffffffffffffffffffffffffffffffffffff1673ffffffffffffffffffffffffffffffffffffffff1681526020019081526020016000206002018054809190600190036116729190612cff565b5050611742565b808060010191505061118b565b600160003373ffffffffffffffffffffffffffffffffffffffff1673ffffffffffffffffffffffffffffffffffffffff168152602001908152602001600020600201805490508110611740576040517f08c379a000000000000000000000000000000000000000000000000000000000815260040180806020018281038252601e8152602001807f596f7520646f6e277420686176652073756368207369676e617475726521000081525060200191505060405180910390fd5b505b5050565b600160008373ffffffffffffffffffffffffffffffffffffffff1673ffffffffffffffffffffffffffffffffffffffff168152602001908152602001600020600101805490508110611800576040517f08c379a00000000000000000000000000000000000000000000000000000000081526004018080602001828103825260188152602001807f4e6f20737563682061747472696275746520657869737421000000000000000081525060200191505060405180910390fd5b67016345785d8a000034101561187e576040517f08c379a000000000000000000000000000000000000000000000000000000000815260040180806020018281038252601a8152602001807f596f75206e65656420746f20706179206d6f7265206d6f6e657900000000000081525060200191505060405180910390fd5b42600160008473ffffffffffffffffffffffffffffffffffffffff1673ffffffffffffffffffffffffffffffffffffffff16815260200190815260200160002060010182815481106118cc57fe5b90600052602060002090600902016004015411611951576040517f08c379a000000000000000000000000000000000000000000000000000000000815260040180806020018281038252601a8152602001807f54686973204174747269627574652069732054696d652055702100000000000081525060200191505060405180910390fd5b60001515600160003373ffffffffffffffffffffffffffffffffffffffff1673ffffffffffffffffffffffffffffffffffffffff16815260200190815260200160002060000160009054906101000a900460ff1615151415611a6e5760003390806001815401808255809150509060018203906000526020600020016000909192909190916101000a81548173ffffffffffffffffffffffffffffffffffffffff021916908373ffffffffffffffffffffffffffffffffffffffff1602179055505060018060003373ffffffffffffffffffffffffffffffffffffffff1673ffffffffffffffffffffffffffffffffffffffff16815260200190815260200160002060000160006101000a81548160ff0219169083151502179055505b60008090505b600160008473ffffffffffffffffffffffffffffffffffffffff1673ffffffffffffffffffffffffffffffffffffffff1681526020019081526020016000206001018281548110611ac157fe5b906000526020600020906009020160030180549050811015611c02573373ffffffffffffffffffffffffffffffffffffffff16600160008573ffffffffffffffffffffffffffffffffffffffff1673ffffffffffffffffffffffffffffffffffffffff1681526020019081526020016000206001018381548110611b4157fe5b90600052602060002090600902016003018281548110611b5d57fe5b9060005260206000200160009054906101000a900473ffffffffffffffffffffffffffffffffffffffff1673ffffffffffffffffffffffffffffffffffffffff161415611bf5576040517f08c379a0000000000000000000000000000000000000000000000000000000008152600401808060200182810382526025815260200180612e186025913960400191505060405180910390fd5b8080600101915050611a74565b50600160008373ffffffffffffffffffffffffffffffffffffffff1673ffffffffffffffffffffffffffffffffffffffff1681526020019081526020016000206001018181548110611c5057fe5b90600052602060002090600902016003013390806001815401808255809150509060018203906000526020600020016000909192909190916101000a81548173ffffffffffffffffffffffffffffffffffffffff021916908373ffffffffffffffffffffffffffffffffffffffff16021790555050611ccd612d31565b82816000019073ffffffffffffffffffffffffffffffffffffffff16908173ffffffffffffffffffffffffffffffffffffffff168152505081816020018181525050600160003373ffffffffffffffffffffffffffffffffffffffff1673ffffffffffffffffffffffffffffffffffffffff168152602001908152602001600020600201819080600181540180825580915050906001820390600052602060002090600202016000909192909190915060008201518160000160006101000a81548173ffffffffffffffffffffffffffffffffffffffff021916908373ffffffffffffffffffffffffffffffffffffffff16021790555060208201518160010155505050505050565b600160003373ffffffffffffffffffffffffffffffffffffffff1673ffffffffffffffffffffffffffffffffffffffff168152602001908152602001600020600101805490508110611e90576040517f08c379a00000000000000000000000000000000000000000000000000000000081526004018080602001828103825260188152602001807f4e6f20737563682061747472696275746520657869737421000000000000000081525060200191505060405180910390fd5b600160003373ffffffffffffffffffffffffffffffffffffffff1673ffffffffffffffffffffffffffffffffffffffff1681526020019081526020016000206001018181548110611edd57fe5b90600052602060002090600902016004015442118015611f5b57506000600160003373ffffffffffffffffffffffffffffffffffffffff1673ffffffffffffffffffffffffffffffffffffffff1681526020019081526020016000206001018281548110611f4757fe5b906000526020600020906009020160080154145b156122b3576000600160003373ffffffffffffffffffffffffffffffffffffffff1673ffffffffffffffffffffffffffffffffffffffff1681526020019081526020016000206001018281548110611faf57fe5b906000526020600020906009020160070160006101000a81548160ff021916908315150217905550600160003373ffffffffffffffffffffffffffffffffffffffff1673ffffffffffffffffffffffffffffffffffffffff168152602001908152602001600020600101818154811061202457fe5b9060005260206000209060090201600801600081548092919060010191905055506000600160003373ffffffffffffffffffffffffffffffffffffffff1673ffffffffffffffffffffffffffffffffffffffff168152602001908152602001600020600101828154811061209457fe5b906000526020600020906009020160030180549050905060008090505b818110156121e857600081815481106120c657fe5b9060005260206000200160009054906101000a900473ffffffffffffffffffffffffffffffffffffffff1673ffffffffffffffffffffffffffffffffffffffff166108fc67016345785d8a00009081150290604051600060405180830381858888f1935050505015801561213e573d6000803e3d6000fd5b50600080828154811061214d57fe5b9060005260206000200160009054906101000a900473ffffffffffffffffffffffffffffffffffffffff1690806001815401808255809150509060018203906000526020600020016000909192909190916101000a81548173ffffffffffffffffffffffffffffffffffffffff021916908373ffffffffffffffffffffffffffffffffffffffff1602179055505080806001019150506120b1565b5060008090505b600080549050828201101561229a5760008282018154811061220d57fe5b9060005260206000200160009054906101000a900473ffffffffffffffffffffffffffffffffffffffff166000828154811061224557fe5b9060005260206000200160006101000a81548173ffffffffffffffffffffffffffffffffffffffff021916908373ffffffffffffffffffffffffffffffffffffffff16021790555080806001019150506121ef565b5080600080549050036000816122b09190612c53565b50505b600160003373ffffffffffffffffffffffffffffffffffffffff1673ffffffffffffffffffffffffffffffffffffffff168152602001908152602001600020600101818154811061230057fe5b9060005260206000209060090201600501544210156125f0573467016345785d8a0000600160003373ffffffffffffffffffffffffffffffffffffffff1673ffffffffffffffffffffffffffffffffffffffff168152602001908152602001600020600101838154811061237057fe5b90600052602060002090600902016006015402106123f6576040517f08c379a00000000000000000000000000000000000000000000000000000000081526004018080602001828103825260188152602001807f596f752073686f756c6420706179206d6f72652066656521000000000000000081525060200191505060405180910390fd5b600160003373ffffffffffffffffffffffffffffffffffffffff1673ffffffffffffffffffffffffffffffffffffffff168152602001908152602001600020600101818154811061244357fe5b906000526020600020906009020160060160008154809291906001019190505550600160003373ffffffffffffffffffffffffffffffffffffffff1673ffffffffffffffffffffffffffffffffffffffff16815260200190815260200160002060010181815481106124b157fe5b906000526020600020906009020160040154600160003373ffffffffffffffffffffffffffffffffffffffff1673ffffffffffffffffffffffffffffffffffffffff168152602001908152602001600020600101828154811061251057fe5b90600052602060002090600902016005018190555062278d00600160003373ffffffffffffffffffffffffffffffffffffffff1673ffffffffffffffffffffffffffffffffffffffff168152602001908152602001600020600101828154811061257657fe5b90600052602060002090600902016004015401600160003373ffffffffffffffffffffffffffffffffffffffff1673ffffffffffffffffffffffffffffffffffffffff16815260200190815260200160002060010182815481106125d657fe5b9060005260206000209060090201600401819055506127dc565b6000600160003373ffffffffffffffffffffffffffffffffffffffff1673ffffffffffffffffffffffffffffffffffffffff168152602001908152602001600020600101828154811061263f57fe5b906000526020600020906009020160060181905550600160003373ffffffffffffffffffffffffffffffffffffffff1673ffffffffffffffffffffffffffffffffffffffff16815260200190815260200160002060010181815481106126a157fe5b906000526020600020906009020160040154600160003373ffffffffffffffffffffffffffffffffffffffff1673ffffffffffffffffffffffffffffffffffffffff168152602001908152602001600020600101828154811061270057fe5b90600052602060002090600902016005018190555062278d00600160003373ffffffffffffffffffffffffffffffffffffffff1673ffffffffffffffffffffffffffffffffffffffff168152602001908152602001600020600101828154811061276657fe5b90600052602060002090600902016004015401600160003373ffffffffffffffffffffffffffffffffffffffff1673ffffffffffffffffffffffffffffffffffffffff16815260200190815260200160002060010182815481106127c657fe5b9060005260206000209060090201600401819055505b50565b6060600160008473ffffffffffffffffffffffffffffffffffffffff1673ffffffffffffffffffffffffffffffffffffffff16815260200190815260200160002060010180549050821061289b576040517f08c379a00000000000000000000000000000000000000000000000000000000081526004018080602001828103825260188152602001807f4e6f20737563682061747472696275746520657869737421000000000000000081525060200191505060405180910390fd5b42600160008573ffffffffffffffffffffffffffffffffffffffff1673ffffffffffffffffffffffffffffffffffffffff16815260200190815260200160002060010183815481106128e957fe5b9060005260206000209060090201600401541161296e576040517f08c379a000000000000000000000000000000000000000000000000000000000815260040180806020018281038252601a8152602001807f54686973204174747269627574652069732054696d652055702100000000000081525060200191505060405180910390fd5b600160008473ffffffffffffffffffffffffffffffffffffffff1673ffffffffffffffffffffffffffffffffffffffff16815260200190815260200160002060010182815481106129bb57fe5b90600052602060002090600902016001018054600181600116156101000203166002900480601f016020809104026020016040519081016040528092919081815260200182805460018160011615610100020316600290048015612a605780601f10612a3557610100808354040283529160200191612a60565b820191906000526020600020905b815481529060010190602001808311612a4357829003601f168201915b5050505050905092915050565b60606000805480602002602001604051908101604052809291908181526020018280548015612af157602002820191906000526020600020905b8160009054906101000a900473ffffffffffffffffffffffffffffffffffffffff1673ffffffffffffffffffffffffffffffffffffffff1681526020019060010190808311612aa7575b5050505050905090565b60405180610120016040528060008152602001606081526020016060815260200160608152602001600081526020016000815260200160008152602001600015158152602001600081525090565b828054600181600116156101000203166002900490600052602060002090601f016020900481019282601f10612b8a57805160ff1916838001178555612bb8565b82800160010185558215612bb8579182015b82811115612bb7578251825591602001919060010190612b9c565b5b509050612bc59190612d61565b5090565b828054828255906000526020600020908101928215612c42579160200282015b82811115612c415782518260006101000a81548173ffffffffffffffffffffffffffffffffffffffff021916908373ffffffffffffffffffffffffffffffffffffffff16021790555091602001919060010190612be9565b5b509050612c4f9190612d86565b5090565b815481835581811115612c7a57818360005260206000209182019101612c799190612d61565b5b505050565b828054600181600116156101000203166002900490600052602060002090601f016020900481019282601f10612cc057805160ff1916838001178555612cee565b82800160010185558215612cee579182015b82811115612ced578251825591602001919060010190612cd2565b5b509050612cfb9190612d61565b5090565b815481835581811115612d2c57600202816002028360005260206000209182019101612d2b9190612dc9565b5b505050565b6040518060400160405280600073ffffffffffffffffffffffffffffffffffffffff168152602001600081525090565b612d8391905b80821115612d7f576000816000905550600101612d67565b5090565b90565b612dc691905b80821115612dc257600081816101000a81549073ffffffffffffffffffffffffffffffffffffffff021916905550600101612d8c565b5090565b90565b612e1491905b80821115612e1057600080820160006101000a81549073ffffffffffffffffffffffffffffffffffffffff0219169055600182016000905550600201612dcf565b5090565b9056fe596f75206861766520616c7265616479207369676e20746869732061747472696275746521a165627a7a72305820afee96f5be95ceb69d09c5051cc5a582a515aed9a4619936d59faf5ad13336590029",
  "source": "pragma solidity >= 0.4.0 < 0.6.0;\r\n\r\ncontract Cert{\r\n    \r\n    struct Attribute{\r\n        uint ID;\r\n        string name;\r\n        string data;\r\n        address payable[] signer;\r\n        uint update_time;\r\n        uint duration_time;\r\n        uint duration_number;\r\n        bool give_back;\r\n        uint paytime;\r\n    }\r\n    struct Signature{\r\n        address target;\r\n        uint ID;\r\n    }\r\n    struct Identity {\r\n        bool exist;\r\n        Attribute[] attrib_list;\r\n        Signature[] sign_list;\r\n    }\r\n    address payable[] exist_list;\r\n    mapping(address=>Identity) identifiers;\r\n    \r\n    function addAttribute(string memory name, string memory data) public{\r\n        if(identifiers[msg.sender].exist == false)\r\n        {\r\n            exist_list.push(msg.sender);\r\n            identifiers[msg.sender].exist = true;\r\n        }\r\n        Attribute memory temp;\r\n        temp.ID = identifiers[msg.sender].attrib_list.length;\r\n        temp.name = name;\r\n        temp.data = data;\r\n        temp.update_time = now+ 1*30 days;\r\n        temp.duration_number = 0;\r\n        temp.duration_time = now;\r\n        temp.give_back = true;\r\n        temp.paytime = 0;\r\n        identifiers[msg.sender].attrib_list.push(temp);\r\n    }\r\n    \r\n    function Sign(address target, uint id) public payable{\r\n        require(id < identifiers[target].attrib_list.length, \"No such attribute exist!\");\r\n        require(msg.value >= 100000000000000000, \"You need to pay more money\");\r\n        require(identifiers[target].attrib_list[id].update_time > now, \"This Attribute is Time Up!\");\r\n\r\n        if(identifiers[msg.sender].exist == false)\r\n        {\r\n            exist_list.push(msg.sender);\r\n            identifiers[msg.sender].exist = true;\r\n        }\r\n        for(uint i=0; i< identifiers[target].attrib_list[id].signer.length; i++)\r\n        {\r\n            require(identifiers[target].attrib_list[id].signer[i]!= msg.sender, \"You have already sign this attribute!\");\r\n        }\r\n        identifiers[target].attrib_list[id].signer.push(msg.sender);\r\n        Signature memory temp;\r\n        temp.target = target;\r\n        temp.ID = id;\r\n        identifiers[msg.sender].sign_list.push(temp);\r\n    }\r\n    function getAttribute(address target, uint ID) public returns(string memory){\r\n        require(ID < identifiers[target].attrib_list.length, \"No such attribute exist!\");\r\n        require(identifiers[target].attrib_list[ID].update_time > now, \"This Attribute is Time Up!\");\r\n        return (identifiers[target].attrib_list[ID].name);\r\n    }\r\n    \r\n    function revokeSignature(address target, uint ID) public payable{\r\n        require(ID < identifiers[target].attrib_list.length, \"No such attribute exist!\");\r\n        uint i=0;\r\n        for(i=0; i< identifiers[msg.sender].sign_list.length; i++)\r\n        {\r\n            if(identifiers[msg.sender].sign_list[i].target==target && identifiers[msg.sender].sign_list[i].ID==ID)\r\n            {\r\n                if(identifiers[target].attrib_list[ID].give_back == true)\r\n                {\r\n                    msg.sender.transfer(100000000000000000);\r\n                }\r\n                \r\n                for(uint j=i ; j < identifiers[msg.sender].sign_list.length; j++)\r\n                {\r\n                    identifiers[msg.sender].sign_list[j] = identifiers[msg.sender].sign_list[j+1];\r\n                }\r\n                delete identifiers[msg.sender].sign_list[identifiers[msg.sender].sign_list.length-1];\r\n                identifiers[msg.sender].sign_list.length--;\r\n                return;\r\n            }\r\n        }\r\n        require(i < identifiers[msg.sender].sign_list.length, \"You don't have such signature!\");\r\n    }\r\n\r\n    function updateAttribute(uint ID, string memory data)public payable{\r\n        require(ID < identifiers[msg.sender].attrib_list.length, \"No such attribute exist!\");\r\n        if(now > identifiers[msg.sender].attrib_list[ID].update_time && identifiers[msg.sender].attrib_list[ID].paytime == 0)\r\n        {\r\n            identifiers[msg.sender].attrib_list[ID].give_back = false;\r\n            identifiers[msg.sender].attrib_list[ID].paytime++;\r\n            uint temp;\r\n            temp = identifiers[msg.sender].attrib_list[ID].signer.length;\r\n            for(uint k=0; k < temp; k++)\r\n            {\r\n                exist_list[k].transfer(100000000000000000);\r\n                exist_list.push(exist_list[k]);\r\n            }\r\n            \r\n            for(uint k=0; k+temp < exist_list.length; k++)\r\n            {\r\n                exist_list[k] = exist_list[k+temp];\r\n            }\r\n            exist_list.length = exist_list.length - temp;\r\n        }\r\n        identifiers[msg.sender].attrib_list[ID].data = data;\r\n        if(identifiers[msg.sender].attrib_list[ID].give_back == true)\r\n        {\r\n            for(uint i=0; i < identifiers[msg.sender].attrib_list[ID].signer.length; i++)\r\n            {\r\n                identifiers[msg.sender].attrib_list[ID].signer[i].transfer(100000000000000000);\r\n            }\r\n        }\r\n        identifiers[msg.sender].attrib_list[ID].signer.length = 0;\r\n        identifiers[msg.sender].attrib_list[ID].update_time = now+ 30 * 1 days;\r\n        identifiers[msg.sender].attrib_list[ID].duration_number = 0;\r\n        identifiers[msg.sender].attrib_list[ID].duration_time = now;\r\n        identifiers[msg.sender].attrib_list[ID].give_back = true;\r\n    }\r\n    function show() public view returns(address payable[] memory){\r\n        return exist_list;\r\n    }\r\n    \r\n    function extendTime(uint ID)public payable{\r\n        require(ID < identifiers[msg.sender].attrib_list.length, \"No such attribute exist!\");\r\n        if(now > identifiers[msg.sender].attrib_list[ID].update_time && identifiers[msg.sender].attrib_list[ID].paytime == 0)\r\n        {\r\n            identifiers[msg.sender].attrib_list[ID].give_back = false;\r\n            identifiers[msg.sender].attrib_list[ID].paytime++;\r\n            uint temp;\r\n            temp = identifiers[msg.sender].attrib_list[ID].signer.length;\r\n            for(uint k=0; k < temp; k++)\r\n            {\r\n                exist_list[k].transfer(100000000000000000);\r\n                exist_list.push(exist_list[k]);\r\n            }\r\n            \r\n            for(uint k=0; k+temp < exist_list.length; k++)\r\n            {\r\n                exist_list[k] = exist_list[k+temp];\r\n            }\r\n            exist_list.length = exist_list.length - temp;\r\n        }\r\n        if(now < identifiers[msg.sender].attrib_list[ID].duration_time)\r\n        {\r\n            require(identifiers[msg.sender].attrib_list[ID].duration_number * 100000000000000000 < msg.value, \"You should pay more fee!\");\r\n            identifiers[msg.sender].attrib_list[ID].duration_number++;\r\n            identifiers[msg.sender].attrib_list[ID].duration_time = identifiers[msg.sender].attrib_list[ID].update_time;\r\n            identifiers[msg.sender].attrib_list[ID].update_time = identifiers[msg.sender].attrib_list[ID].update_time + 30*1 days;\r\n        }\r\n        else\r\n        {\r\n            identifiers[msg.sender].attrib_list[ID].duration_number = 0;\r\n            identifiers[msg.sender].attrib_list[ID].duration_time = identifiers[msg.sender].attrib_list[ID].update_time;\r\n            identifiers[msg.sender].attrib_list[ID].update_time = identifiers[msg.sender].attrib_list[ID].update_time + 30*1 days;\r\n        }\r\n    }\r\n}",
  "sourcePath": "C:/Users/chris/Desktop/identity_and_certification/contracts/Cert.sol",
  "compiler": {
    "name": "solc",
    "version": "0.5.8+commit.23d335f2.Emscripten.clang"
  },
  "schemaVersion": "3.0.11",
  "updatedAt": "2019-06-30T14:55:38.648Z",
  "devdoc": {
    "methods": {}
  },
  "userdoc": {
    "methods": {}
  }
}