{
  "contractName": "giving",
  "abi": [
    {
      "inputs": [],
      "payable": false,
      "stateMutability": "nonpayable",
      "type": "constructor"
    },
    {
      "anonymous": false,
      "inputs": [],
      "name": "OpenDoor",
      "type": "event",
      "constant": true,
      "outputs": [
        {
          "name": "",
          "type": "bool"
        }
      ],
      "payable": false,
      "stateMutability": "view"
    },
    {
      "anonymous": false,
      "inputs": [
        {
          "indexed": false,
          "name": "num",
          "type": "uint256"
        }
      ],
      "name": "checkPermission",
      "type": "function",
      "constant": false,
      "outputs": [
        {
          "name": "",
          "type": "bool"
        }
      ],
      "payable": false,
      "stateMutability": "nonpayable"
    },
    {
      "constant": false,
      "inputs": [
        {
          "name": "daily",
          "type": "uint256"
        }
      ],
      "name": "trans",
      "outputs": [
        {
          "name": "",
          "type": "bool"
        }
      ],
      "payable": true,
      "stateMutability": "payable",
      "type": "function"
    },
    {
      "constant": true,
      "inputs": [
        {
          "name": "num",
          "type": "uint256"
        }
      ],
      "name": "showMaster",
      "outputs": [
        {
          "name": "",
          "type": "address"
        }
      ],
      "payable": false,
      "stateMutability": "view",
      "type": "function"
    }
  ],
  "bytecode": "0x608060405234801561001057600080fd5b5033600160006101000a81548173ffffffffffffffffffffffffffffffffffffffff021916908373ffffffffffffffffffffffffffffffffffffffff16021790555060016000803373ffffffffffffffffffffffffffffffffffffffff1673ffffffffffffffffffffffffffffffffffffffff16815260200190815260200160002060006101000a81548160ff021916908315150217905550610392806100b86000396000f3fe608060405260043610610057576000357c0100000000000000000000000000000000000000000000000000000000900463ffffffff1680635a1c58301461005c57806366c9913914610073578063ba28ec1a146100a1575b600080fd5b34801561006857600080fd5b506100716100f8565b005b61009f6004803603602081101561008957600080fd5b81019080803590602001909291905050506101ed565b005b3480156100ad57600080fd5b506100b661033c565b604051808273ffffffffffffffffffffffffffffffffffffffff1673ffffffffffffffffffffffffffffffffffffffff16815260200191505060405180910390f35b600115156000803373ffffffffffffffffffffffffffffffffffffffff1673ffffffffffffffffffffffffffffffffffffffff16815260200190815260200160002060009054906101000a900460ff1615151415156101bf576040517f08c379a00000000000000000000000000000000000000000000000000000000081526004018080602001828103825260198152602001807f596f7520646f6e27742068617665207065726d697373696f6e0000000000000081525060200191505060405180910390fd5b7f18507b00ac5716f819c8cbc32ff10f4f9c9182dae2dd8faf902e352c817481cf60405160405180910390a1565b8067016345785d8a000002341015151561026f576040517f08c379a00000000000000000000000000000000000000000000000000000000081526004018080602001828103825260188152602001807f506c656173652073656e6420656e6f756768206d6f6e6579000000000000000081525060200191505060405180910390fd5b600160009054906101000a900473ffffffffffffffffffffffffffffffffffffffff1673ffffffffffffffffffffffffffffffffffffffff166108fc8267016345785d8a0000029081150290604051600060405180830381858888f193505050501580156102e1573d6000803e3d6000fd5b5060016000803373ffffffffffffffffffffffffffffffffffffffff1673ffffffffffffffffffffffffffffffffffffffff16815260200190815260200160002060006101000a81548160ff02191690831515021790555050565b6000600160009054906101000a900473ffffffffffffffffffffffffffffffffffffffff1690509056fea165627a7a72305820f3d695abfbd7f2e58237c9335435d72b1baf8a9e7efe39c4f48e1e08cf84d37a0029",
  "source": "pragma solidity >=0.4.0 <0.6.0;\r\n\r\ncontract giving{\r\n    \r\n    //Create a variable for each possible address\r\n    event OpenDoor();\r\n    mapping (address=>bool) private ownership;\r\n    //Save the owner address \r\n    address payable master;\r\n    \r\n    constructor() public{\r\n        master = msg.sender;\r\n        ownership[msg.sender] = true;\r\n    }\r\n    function checkPermission() public{\r\n        require(ownership[msg.sender]==true, \"You don't have permission\");\r\n        emit OpenDoor();\r\n    }\r\n    function trans(uint daily) public payable{\r\n        require(msg.value >= 100000000000000000*daily, \"Please send enough money\");\r\n        master.transfer(100000000000000000*daily);\r\n        ownership[msg.sender] = true;\r\n    }\r\n    function showMaster() public view returns(address){\r\n        return master;\r\n    }\r\n}",
  "sourcePath": "C:/Users/chris/Desktop/test/test_DApp/contracts/giving.sol",
  "compiler": {
    "name": "solc",
    "version": "0.5.0+commit.1d4f565a.Emscripten.clang"
  },
  "schemaVersion": "3.0.9",
  "updatedAt": "2019-05-16T14:01:21.315Z",
  "devdoc": {
    "methods": {}
  },
  "userdoc": {
    "methods": {}
  }
}