{
  "contractName": "giving",
  "abi": [
    {
      "inputs": [],
      "payable": false,
      "stateMutability": "nonpayable",
      "type": "constructor"
    },
    {
      "anonymous": false,
      "inputs": [],
      "name": "OpenDoor",
      "type": "event",
      "constant": true,
      "outputs": [
        {
          "name": "",
          "type": "bool"
        }
      ],
      "payable": false,
      "stateMutability": "view"
    },
    {
      "anonymous": false,
      "inputs": [
        {
          "indexed": false,
          "name": "num",
          "type": "uint256"
        }
      ],
      "name": "checkPermission",
      "type": "function",
      "constant": false,
      "outputs": [
        {
          "name": "",
          "type": "bool"
        }
      ],
      "payable": false,
      "stateMutability": "nonpayable"
    },
    {
      "constant": false,
      "inputs": [
        {
          "name": "daily",
          "type": "uint256"
        }
      ],
      "name": "trans",
      "outputs": [
        {
          "name": "",
          "type": "bool"
        }
      ],
      "payable": true,
      "stateMutability": "payable",
      "type": "function"
    },
    {
      "constant": true,
      "inputs": [
        {
          "name": "num",
          "type": "uint256"
        }
      ],
      "name": "showMaster",
      "outputs": [
        {
          "name": "",
          "type": "address"
        }
      ],
      "payable": false,
      "stateMutability": "view",
      "type": "function"
    }
  ],
  "bytecode": "0x608060405234801561001057600080fd5b5033600260006101000a81548173ffffffffffffffffffffffffffffffffffffffff021916908373ffffffffffffffffffffffffffffffffffffffff16021790555060016000803373ffffffffffffffffffffffffffffffffffffffff1673ffffffffffffffffffffffffffffffffffffffff16815260200190815260200160002060006101000a81548160ff021916908315150217905550610460806100b86000396000f3fe60806040526004361061004c576000357c0100000000000000000000000000000000000000000000000000000000900463ffffffff1680635a1c58301461005157806366c9913914610068575b600080fd5b34801561005d57600080fd5b50610066610096565b005b6100946004803603602081101561007e57600080fd5b810190808035906020019092919050505061029a565b005b600115156000803373ffffffffffffffffffffffffffffffffffffffff1673ffffffffffffffffffffffffffffffffffffffff16815260200190815260200160002060009054906101000a900460ff16151514151561015d576040517f08c379a00000000000000000000000000000000000000000000000000000000081526004018080602001828103825260198152602001807f596f7520646f6e27742068617665207065726d697373696f6e0000000000000081525060200191505060405180910390fd5b600260009054906101000a900473ffffffffffffffffffffffffffffffffffffffff1673ffffffffffffffffffffffffffffffffffffffff163373ffffffffffffffffffffffffffffffffffffffff1614151561026c5742600160003373ffffffffffffffffffffffffffffffffffffffff1673ffffffffffffffffffffffffffffffffffffffff168152602001908152602001600020541015151561026b576040517f08c379a000000000000000000000000000000000000000000000000000000000815260040180806020018281038252601e8152602001807f596f7572207065726d697373696f6e206973206f7574206f662064617465000081525060200191505060405180910390fd5b5b7f18507b00ac5716f819c8cbc32ff10f4f9c9182dae2dd8faf902e352c817481cf60405160405180910390a1565b8067016345785d8a000002341015151561031c576040517f08c379a00000000000000000000000000000000000000000000000000000000081526004018080602001828103825260188152602001807f506c656173652073656e6420656e6f756768206d6f6e6579000000000000000081525060200191505060405180910390fd5b600260009054906101000a900473ffffffffffffffffffffffffffffffffffffffff1673ffffffffffffffffffffffffffffffffffffffff166108fc8267016345785d8a0000029081150290604051600060405180830381858888f1935050505015801561038e573d6000803e3d6000fd5b506201518081024201600160003373ffffffffffffffffffffffffffffffffffffffff1673ffffffffffffffffffffffffffffffffffffffff1681526020019081526020016000208190555060016000803373ffffffffffffffffffffffffffffffffffffffff1673ffffffffffffffffffffffffffffffffffffffff16815260200190815260200160002060006101000a81548160ff0219169083151502179055505056fea165627a7a72305820ebbb5e46abe638c8c27274453a8e8ae1922b3fccc5bd96367a4809e4a285a3d40029",
  "source": "pragma solidity >=0.4.0 <0.6.0;\r\n\r\ncontract giving{\r\n    \r\n    //Create a variable for each possible address\r\n    event OpenDoor();\r\n    mapping (address=>bool) private ownership;\r\n    mapping(address=>uint256) private contract_time;\r\n    //Save the owner address \r\n    address payable master;\r\n    \r\n    constructor() public{\r\n        master = msg.sender;\r\n        ownership[msg.sender] = true;\r\n    }\r\n    function checkPermission() public{\r\n        require(ownership[msg.sender]==true, \"You don't have permission\");\r\n        if(msg.sender != master)\r\n            require(contract_time[msg.sender] >= now, \"Your permission is out of date\");\r\n        emit OpenDoor();\r\n    }\r\n    function trans(uint daily) public payable{\r\n        require(msg.value >= 100000000000000000*daily, \"Please send enough money\");\r\n        master.transfer(100000000000000000*daily);\r\n        contract_time[msg.sender] = now + daily * 1 days;\r\n        ownership[msg.sender] = true;\r\n    }\r\n}",
  "sourcePath": "C:/Users/chris/Desktop/test/test_DApp/contracts/giving.sol",
  "compiler": {
    "name": "solc",
    "version": "0.5.0+commit.1d4f565a.Emscripten.clang"
  },
  "schemaVersion": "3.0.9",
  "updatedAt": "2019-05-16T18:46:08.266Z",
  "devdoc": {
    "methods": {}
  },
  "userdoc": {
    "methods": {}
  }
}