{
  "contractName": "giving",
  "abi": [
    {
      "inputs": [],
      "payable": false,
      "stateMutability": "nonpayable",
      "type": "constructor"
    },
    {
      "anonymous": false,
      "inputs": [],
      "name": "OpenDoor",
      "type": "event",
      "constant": true,
      "outputs": [
        {
          "name": "",
          "type": "bool"
        }
      ],
      "payable": false,
      "stateMutability": "view"
    },
    {
      "anonymous": false,
      "inputs": [
        {
          "indexed": false,
          "name": "num",
          "type": "uint256"
        }
      ],
      "name": "checkPermission",
      "type": "function",
      "constant": false,
      "outputs": [
        {
          "name": "",
          "type": "bool"
        }
      ],
      "payable": false,
      "stateMutability": "nonpayable"
    },
    {
      "constant": false,
      "inputs": [
        {
          "name": "target",
          "type": "address"
        }
      ],
      "name": "trans",
      "outputs": [
        {
          "name": "",
          "type": "bool"
        }
      ],
      "payable": false,
      "stateMutability": "nonpayable",
      "type": "function"
    },
    {
      "constant": false,
      "inputs": [
        {
          "name": "target",
          "type": "address"
        }
      ],
      "name": "trans",
      "outputs": [],
      "payable": false,
      "stateMutability": "nonpayable",
      "type": "function"
    }
  ],
  "bytecode": "0x608060405234801561001057600080fd5b5033600160006101000a81548173ffffffffffffffffffffffffffffffffffffffff021916908373ffffffffffffffffffffffffffffffffffffffff16021790555060016000803373ffffffffffffffffffffffffffffffffffffffff1673ffffffffffffffffffffffffffffffffffffffff16815260200190815260200160002060006101000a81548160ff02191690831515021790555061033a806100b86000396000f3fe60806040526004361061004c576000357c0100000000000000000000000000000000000000000000000000000000900463ffffffff1680637010009314610051578063ab739499146100ba575b600080fd5b34801561005d57600080fd5b506100a06004803603602081101561007457600080fd5b81019080803573ffffffffffffffffffffffffffffffffffffffff1690602001909291905050506100f5565b604051808215151515815260200191505060405180910390f35b3480156100c657600080fd5b506100f3600480360360208110156100dd57600080fd5b8101908080359060200190929190505050610218565b005b6000600160009054906101000a900473ffffffffffffffffffffffffffffffffffffffff1673ffffffffffffffffffffffffffffffffffffffff163373ffffffffffffffffffffffffffffffffffffffff161415156101bc576040517f08c379a00000000000000000000000000000000000000000000000000000000081526004018080602001828103825260208152602001807f4f6e6c79206d61737465722063616e2067697665207065726d697373696f6e2181525060200191505060405180910390fd5b60016000808473ffffffffffffffffffffffffffffffffffffffff1673ffffffffffffffffffffffffffffffffffffffff16815260200190815260200160002060006101000a81548160ff021916908315150217905550919050565b600115156000803373ffffffffffffffffffffffffffffffffffffffff1673ffffffffffffffffffffffffffffffffffffffff16815260200190815260200160002060009054906101000a900460ff1615151415156102df576040517f08c379a00000000000000000000000000000000000000000000000000000000081526004018080602001828103825260198152602001807f596f7520646f6e27742068617665207065726d697373696f6e0000000000000081525060200191505060405180910390fd5b7f18507b00ac5716f819c8cbc32ff10f4f9c9182dae2dd8faf902e352c817481cf60405160405180910390a15056fea165627a7a723058208d2002b5dbdcf5df7205dbfdb1ead2fd4ed2948a7276efa614b653fca457bf020029",
  "source": "pragma solidity >=0.4.0 <0.6.0;\r\n\r\ncontract giving{\r\n    \r\n    //Create a variable for each possible address\r\n    event OpenDoor();\r\n    mapping (address=>bool) private ownership;\r\n    //Save the owner address \r\n    address master;\r\n    \r\n    constructor() public{\r\n        master = msg.sender;\r\n        ownership[msg.sender] = true;\r\n    }\r\n    function checkPermission(uint num) public{\r\n        require(ownership[msg.sender]==true, \"You don't have permission\");\r\n        emit OpenDoor();\r\n    }\r\n    function trans(address target) public returns(bool){\r\n        require(msg.sender==master, \"Only master can give permission!\");\r\n        ownership[target] = true;\r\n    }\r\n}",
  "sourcePath": "C:/Users/chris/Desktop/test/test_DApp/contracts/giving.sol",
  "compiler": {
    "name": "solc",
    "version": "0.5.0+commit.1d4f565a.Emscripten.clang"
  },
  "schemaVersion": "3.0.9",
  "updatedAt": "2019-05-15T12:56:25.802Z",
  "devdoc": {
    "methods": {}
  },
  "userdoc": {
    "methods": {}
  }
}