{
  "contractName": "giving",
  "abi": [
    {
      "inputs": [],
      "payable": false,
      "stateMutability": "nonpayable",
      "type": "constructor"
    },
    {
      "anonymous": false,
      "inputs": [],
      "name": "openDoor",
      "type": "event"
    },
    {
      "anonymous": false,
      "inputs": [
        {
          "indexed": false,
          "name": "to",
          "type": "address"
        }
      ],
      "name": "okToGive",
      "type": "event"
    },
    {
      "constant": false,
      "inputs": [
        {
          "name": "target",
          "type": "address"
        }
      ],
      "name": "checkPermission",
      "outputs": [],
      "payable": false,
      "stateMutability": "nonpayable",
      "type": "function"
    },
    {
      "constant": false,
      "inputs": [
        {
          "name": "target",
          "type": "address"
        }
      ],
      "name": "trans",
      "outputs": [],
      "payable": false,
      "stateMutability": "nonpayable",
      "type": "function"
    }
  ],
  "bytecode": "0x608060405234801561001057600080fd5b5033600160006101000a81548173ffffffffffffffffffffffffffffffffffffffff021916908373ffffffffffffffffffffffffffffffffffffffff16021790555060016000803373ffffffffffffffffffffffffffffffffffffffff1673ffffffffffffffffffffffffffffffffffffffff16815260200190815260200160002060006101000a81548160ff021916908315150217905550610397806100b86000396000f3fe60806040526004361061004c576000357c0100000000000000000000000000000000000000000000000000000000900463ffffffff16806357d3a7861461005157806370100093146100a2575b600080fd5b34801561005d57600080fd5b506100a06004803603602081101561007457600080fd5b81019080803573ffffffffffffffffffffffffffffffffffffffff1690602001909291905050506100f3565b005b3480156100ae57600080fd5b506100f1600480360360208110156100c557600080fd5b81019080803573ffffffffffffffffffffffffffffffffffffffff1690602001909291905050506101e9565b005b600115156000808373ffffffffffffffffffffffffffffffffffffffff1673ffffffffffffffffffffffffffffffffffffffff16815260200190815260200160002060009054906101000a900460ff1615151415156101ba576040517f08c379a00000000000000000000000000000000000000000000000000000000081526004018080602001828103825260198152602001807f596f7520646f6e27742068617665207065726d697373696f6e0000000000000081525060200191505060405180910390fd5b7fdb0e127abf8f37157b514ab3eb2a4609daef2ad786863dfb5f7657882716cb8b60405160405180910390a150565b600160009054906101000a900473ffffffffffffffffffffffffffffffffffffffff1673ffffffffffffffffffffffffffffffffffffffff163373ffffffffffffffffffffffffffffffffffffffff161415156102ae576040517f08c379a00000000000000000000000000000000000000000000000000000000081526004018080602001828103825260208152602001807f4f6e6c79206d61737465722063616e2067697665207065726d697373696f6e2181525060200191505060405180910390fd5b60016000808373ffffffffffffffffffffffffffffffffffffffff1673ffffffffffffffffffffffffffffffffffffffff16815260200190815260200160002060006101000a81548160ff0219169083151502179055507fde7b708bdceab6a3616de91d869da969f8285311a3c81a5fbc47dd8b7c764a3481604051808273ffffffffffffffffffffffffffffffffffffffff1673ffffffffffffffffffffffffffffffffffffffff16815260200191505060405180910390a15056fea165627a7a72305820b3a37ed5bcd9091890bee6c9a860efb2f4688eae081203e31d2f2cdcf06b77550029",
  "source": "pragma solidity >=0.4.0 < 0.6.0;\r\n\r\ncontract giving{\r\n    \r\n    //Create a variable for each possible address\r\n\r\n    mapping (address=>bool) private ownership;\r\n    //Save the owner address \r\n    address master;\r\n    //The event to control iot devices\r\n    event openDoor();\r\n    //The event to transfer permission\r\n    event okToGive(address to);\r\n    \r\n    constructor() public{\r\n        master = msg.sender;\r\n        ownership[msg.sender] = true;\r\n    }\r\n    function checkPermission(address target) public{\r\n        require(ownership[target]==true, \"You don't have permission\");\r\n        emit openDoor();\r\n    }\r\n    function trans(address target) public{\r\n        require(msg.sender==master, \"Only master can give permission!\");\r\n        ownership[target] = true;\r\n        emit okToGive(target);\r\n    }\r\n}",
  "sourcePath": "C:/Users/chris/Desktop/test/test_DApp/contracts/giving.sol",
  "compiler": {
    "name": "solc",
    "version": "0.5.0+commit.1d4f565a.Emscripten.clang"
  },
  "schemaVersion": "3.0.9",
  "updatedAt": "2019-05-14T13:53:49.368Z",
  "devdoc": {
    "methods": {}
  },
  "userdoc": {
    "methods": {}
  }
}